{
  "_format": "hh-sol-artifact-1",
  "contractName": "USER",
  "sourceName": "contracts/USER.sol",
  "abi": [
    {
      "inputs": [
        {
          "internalType": "address",
          "name": "_identityCon",
          "type": "address"
        },
        {
          "internalType": "address",
          "name": "_cspCon",
          "type": "address"
        },
        {
          "internalType": "address",
          "name": "_aclCon",
          "type": "address"
        },
        {
          "internalType": "address",
          "name": "_integrityCon",
          "type": "address"
        },
        {
          "internalType": "address",
          "name": "_genShareCon",
          "type": "address"
        },
        {
          "internalType": "address",
          "name": "_genkeyCon",
          "type": "address"
        }
      ],
      "stateMutability": "nonpayable",
      "type": "constructor"
    },
    {
      "anonymous": false,
      "inputs": [
        {
          "indexed": true,
          "internalType": "address",
          "name": "user",
          "type": "address"
        }
      ],
      "name": "UserRegistered",
      "type": "event"
    },
    {
      "inputs": [
        {
          "internalType": "string",
          "name": "_password",
          "type": "string"
        }
      ],
      "name": "authenticateUser",
      "outputs": [],
      "stateMutability": "nonpayable",
      "type": "function"
    },
    {
      "inputs": [
        {
          "internalType": "string",
          "name": "file",
          "type": "string"
        },
        {
          "internalType": "string",
          "name": "dataHash",
          "type": "string"
        }
      ],
      "name": "checkInterity",
      "outputs": [
        {
          "internalType": "bool",
          "name": "",
          "type": "bool"
        }
      ],
      "stateMutability": "view",
      "type": "function"
    },
    {
      "inputs": [],
      "name": "checkUser",
      "outputs": [
        {
          "internalType": "bool",
          "name": "",
          "type": "bool"
        }
      ],
      "stateMutability": "view",
      "type": "function"
    },
    {
      "inputs": [
        {
          "internalType": "string",
          "name": "_fileHash",
          "type": "string"
        }
      ],
      "name": "generageKey",
      "outputs": [],
      "stateMutability": "nonpayable",
      "type": "function"
    },
    {
      "inputs": [
        {
          "internalType": "address",
          "name": "csp",
          "type": "address"
        },
        {
          "internalType": "string",
          "name": "fileHash",
          "type": "string"
        },
        {
          "internalType": "bool",
          "name": "isPublic",
          "type": "bool"
        },
        {
          "internalType": "string",
          "name": "s1",
          "type": "string"
        },
        {
          "internalType": "string",
          "name": "s2",
          "type": "string"
        }
      ],
      "name": "generateAcl",
      "outputs": [],
      "stateMutability": "nonpayable",
      "type": "function"
    },
    {
      "inputs": [
        {
          "internalType": "uint256",
          "name": "secret",
          "type": "uint256"
        },
        {
          "internalType": "uint256",
          "name": "n",
          "type": "uint256"
        },
        {
          "internalType": "string",
          "name": "fileHash",
          "type": "string"
        }
      ],
      "name": "generateKeyShare",
      "outputs": [],
      "stateMutability": "nonpayable",
      "type": "function"
    },
    {
      "inputs": [],
      "name": "getAllregFiles",
      "outputs": [
        {
          "components": [
            {
              "internalType": "address",
              "name": "csp",
              "type": "address"
            },
            {
              "internalType": "address",
              "name": "dataOwner",
              "type": "address"
            },
            {
              "internalType": "string",
              "name": "desc",
              "type": "string"
            },
            {
              "internalType": "string",
              "name": "fileLocationHash",
              "type": "string"
            },
            {
              "internalType": "string",
              "name": "encDataHash",
              "type": "string"
            },
            {
              "internalType": "string",
              "name": "createdAt",
              "type": "string"
            }
          ],
          "internalType": "struct Integrity.RegFile[]",
          "name": "",
          "type": "tuple[]"
        }
      ],
      "stateMutability": "view",
      "type": "function"
    },
    {
      "inputs": [
        {
          "internalType": "address",
          "name": "_csp",
          "type": "address"
        }
      ],
      "name": "getCspFireCred",
      "outputs": [
        {
          "components": [
            {
              "internalType": "string",
              "name": "apiKey",
              "type": "string"
            },
            {
              "internalType": "string",
              "name": "authDomain",
              "type": "string"
            },
            {
              "internalType": "string",
              "name": "ProjectId",
              "type": "string"
            },
            {
              "internalType": "string",
              "name": "storageBucket",
              "type": "string"
            },
            {
              "internalType": "string",
              "name": "messagingSenderId",
              "type": "string"
            },
            {
              "internalType": "string",
              "name": "appId",
              "type": "string"
            },
            {
              "internalType": "string",
              "name": "measurmentId",
              "type": "string"
            }
          ],
          "internalType": "struct CSP.FirebaseConfig",
          "name": "",
          "type": "tuple"
        }
      ],
      "stateMutability": "view",
      "type": "function"
    },
    {
      "inputs": [
        {
          "internalType": "string",
          "name": "_fileHash",
          "type": "string"
        }
      ],
      "name": "getKey",
      "outputs": [
        {
          "internalType": "string[]",
          "name": "",
          "type": "string[]"
        }
      ],
      "stateMutability": "view",
      "type": "function"
    },
    {
      "inputs": [],
      "name": "getUserdetail",
      "outputs": [
        {
          "components": [
            {
              "internalType": "string",
              "name": "user_name",
              "type": "string"
            },
            {
              "internalType": "address",
              "name": "user_address",
              "type": "address"
            },
            {
              "internalType": "bytes32",
              "name": "hashedPassword",
              "type": "bytes32"
            }
          ],
          "internalType": "struct USER.User",
          "name": "",
          "type": "tuple"
        }
      ],
      "stateMutability": "view",
      "type": "function"
    },
    {
      "inputs": [],
      "name": "isAuthenticated",
      "outputs": [
        {
          "components": [
            {
              "internalType": "bool",
              "name": "success",
              "type": "bool"
            },
            {
              "internalType": "string",
              "name": "message",
              "type": "string"
            }
          ],
          "internalType": "struct Identity.VerificationResult",
          "name": "",
          "type": "tuple"
        }
      ],
      "stateMutability": "view",
      "type": "function"
    },
    {
      "inputs": [],
      "name": "owner",
      "outputs": [
        {
          "internalType": "address",
          "name": "",
          "type": "address"
        }
      ],
      "stateMutability": "view",
      "type": "function"
    },
    {
      "inputs": [
        {
          "internalType": "string",
          "name": "_userName",
          "type": "string"
        },
        {
          "internalType": "string",
          "name": "_password",
          "type": "string"
        }
      ],
      "name": "registerUser",
      "outputs": [
        {
          "internalType": "bool",
          "name": "",
          "type": "bool"
        }
      ],
      "stateMutability": "nonpayable",
      "type": "function"
    },
    {
      "inputs": [
        {
          "internalType": "address",
          "name": "_csp",
          "type": "address"
        },
        {
          "internalType": "string",
          "name": "_fileHash",
          "type": "string"
        }
      ],
      "name": "requestFile",
      "outputs": [],
      "stateMutability": "nonpayable",
      "type": "function"
    },
    {
      "inputs": [],
      "name": "signOut",
      "outputs": [],
      "stateMutability": "nonpayable",
      "type": "function"
    },
    {
      "inputs": [
        {
          "internalType": "address",
          "name": "_csp",
          "type": "address"
        },
        {
          "internalType": "string",
          "name": "_desc",
          "type": "string"
        },
        {
          "internalType": "string",
          "name": "_fileLocHash",
          "type": "string"
        },
        {
          "internalType": "string",
          "name": "_encDataHash",
          "type": "string"
        }
      ],
      "name": "uploadFile",
      "outputs": [],
      "stateMutability": "nonpayable",
      "type": "function"
    }
  ],
  "bytecode": "0x6080604052604051620000129062000275565b604051809103906000f0801580156200002f573d6000803e3d6000fd5b50600760006101000a81548173ffffffffffffffffffffffffffffffffffffffff021916908373ffffffffffffffffffffffffffffffffffffffff1602179055503480156200007d57600080fd5b50604051620033bb380380620033bb8339818101604052810190620000a39190620002ed565b336000806101000a81548173ffffffffffffffffffffffffffffffffffffffff021916908373ffffffffffffffffffffffffffffffffffffffff16021790555085600160006101000a81548173ffffffffffffffffffffffffffffffffffffffff021916908373ffffffffffffffffffffffffffffffffffffffff16021790555083600360006101000a81548173ffffffffffffffffffffffffffffffffffffffff021916908373ffffffffffffffffffffffffffffffffffffffff16021790555084600260006101000a81548173ffffffffffffffffffffffffffffffffffffffff021916908373ffffffffffffffffffffffffffffffffffffffff16021790555082600460006101000a81548173ffffffffffffffffffffffffffffffffffffffff021916908373ffffffffffffffffffffffffffffffffffffffff16021790555081600560006101000a81548173ffffffffffffffffffffffffffffffffffffffff021916908373ffffffffffffffffffffffffffffffffffffffff16021790555080600660006101000a81548173ffffffffffffffffffffffffffffffffffffffff021916908373ffffffffffffffffffffffffffffffffffffffff16021790555050505050505062000389565b6104618062002f5a83390190565b600080fd5b600073ffffffffffffffffffffffffffffffffffffffff82169050919050565b6000620002b58262000288565b9050919050565b620002c781620002a8565b8114620002d357600080fd5b50565b600081519050620002e781620002bc565b92915050565b60008060008060008060c087890312156200030d576200030c62000283565b5b60006200031d89828a01620002d6565b96505060206200033089828a01620002d6565b95505060406200034389828a01620002d6565b94505060606200035689828a01620002d6565b93505060806200036989828a01620002d6565b92505060a06200037c89828a01620002d6565b9150509295509295509295565b612bc180620003996000396000f3fe608060405234801561001057600080fd5b50600436106101005760003560e01c80638da5cb5b11610097578063c156254711610066578063c156254714610287578063ce65506f146102a5578063d37aec92146102c1578063d828062f146102f157610100565b80638da5cb5b14610211578063a4b825231461022f578063a8178f551461024d578063b3e367371461026b57610100565b80636304bcef116100d35780636304bcef1461018b5780636510b22a146101a757806368c6bd6b146101c557806384d3e4ed146101f557610100565b80631d2e4afd146101055780631f919e8d146101355780632c905bb71461015157806334adc87514610181575b600080fd5b61011f600480360381019061011a919061148f565b61030d565b60405161012c9190611522565b60405180910390f35b61014f600480360381019061014a919061153d565b610547565b005b61016b600480360381019061016691906115e4565b6106a8565b6040516101789190611756565b60405180910390f35b61018961075a565b005b6101a560048036038101906101a0919061153d565b610846565b005b6101af610935565b6040516101bc91906118e7565b60405180910390f35b6101df60048036038101906101da919061148f565b6109dd565b6040516101ec9190611522565b60405180910390f35b61020f600480360381019061020a919061193f565b610a85565b005b610219610b78565b60405161022691906119bd565b60405180910390f35b610237610b9c565b6040516102449190611a24565b60405180910390f35b610255610c4a565b6040516102629190611aaf565b60405180910390f35b61028560048036038101906102809190611ad1565b610df0565b005b61028f610ee2565b60405161029c9190611522565b60405180910390f35b6102bf60048036038101906102ba9190611b2d565b610f36565b005b6102db60048036038101906102d6919061153d565b611158565b6040516102e89190611caa565b60405180910390f35b61030b60048036038101906103069190611cf8565b611204565b005b6000600960003373ffffffffffffffffffffffffffffffffffffffff1673ffffffffffffffffffffffffffffffffffffffff16815260200190815260200160002060009054906101000a900460ff161561039c576040517f08c379a000000000000000000000000000000000000000000000000000000000815260040161039390611e24565b60405180910390fd5b600060405180606001604052808581526020013373ffffffffffffffffffffffffffffffffffffffff168152602001846040516020016103dc9190611e80565b60405160208183030381529060405280519060200120815250905080600860003373ffffffffffffffffffffffffffffffffffffffff1673ffffffffffffffffffffffffffffffffffffffff168152602001908152602001600020600082015181600001908161044c91906120a3565b5060208201518160010160006101000a81548173ffffffffffffffffffffffffffffffffffffffff021916908373ffffffffffffffffffffffffffffffffffffffff160217905550604082015181600201559050506001600960003373ffffffffffffffffffffffffffffffffffffffff1673ffffffffffffffffffffffffffffffffffffffff16815260200190815260200160002060006101000a81548160ff0219169083151502179055503373ffffffffffffffffffffffffffffffffffffffff167f54db7a5cb4735e1aac1f53db512d3390390bb6637bd30ad4bf9fc98667d9b9b960405160405180910390a2600191505092915050565b60011515600960003373ffffffffffffffffffffffffffffffffffffffff1673ffffffffffffffffffffffffffffffffffffffff16815260200190815260200160002060009054906101000a900460ff161515146105a457600080fd5b806040516020016105b59190611e80565b60405160208183030381529060405280519060200120600860003373ffffffffffffffffffffffffffffffffffffffff1673ffffffffffffffffffffffffffffffffffffffff168152602001908152602001600020600201541461061857600080fd5b600160009054906101000a900473ffffffffffffffffffffffffffffffffffffffff1673ffffffffffffffffffffffffffffffffffffffff1663a037eca9336040518263ffffffff1660e01b815260040161067391906119bd565b600060405180830381600087803b15801561068d57600080fd5b505af11580156106a1573d6000803e3d6000fd5b5050505050565b6106b06112a2565b600260009054906101000a900473ffffffffffffffffffffffffffffffffffffffff1673ffffffffffffffffffffffffffffffffffffffff1663226381b633846040518363ffffffff1660e01b815260040161070d929190612175565b600060405180830381865afa15801561072a573d6000803e3d6000fd5b505050506040513d6000823e3d601f19601f820116820180604052508101906107539190612390565b9050919050565b60011515600960003373ffffffffffffffffffffffffffffffffffffffff1673ffffffffffffffffffffffffffffffffffffffff16815260200190815260200160002060009054906101000a900460ff161515146107b757600080fd5b600160009054906101000a900473ffffffffffffffffffffffffffffffffffffffff1673ffffffffffffffffffffffffffffffffffffffff1663f069f712336040518263ffffffff1660e01b815260040161081291906119bd565b600060405180830381600087803b15801561082c57600080fd5b505af1158015610840573d6000803e3d6000fd5b50505050565b60011515600960003373ffffffffffffffffffffffffffffffffffffffff1673ffffffffffffffffffffffffffffffffffffffff16815260200190815260200160002060009054906101000a900460ff161515146108a357600080fd5b600660009054906101000a900473ffffffffffffffffffffffffffffffffffffffff1673ffffffffffffffffffffffffffffffffffffffff1663c93731ee33836040518363ffffffff1660e01b8152600401610900929190612412565b600060405180830381600087803b15801561091a57600080fd5b505af115801561092e573d6000803e3d6000fd5b5050505050565b6060600460009054906101000a900473ffffffffffffffffffffffffffffffffffffffff1673ffffffffffffffffffffffffffffffffffffffff16638799041f336040518263ffffffff1660e01b815260040161099291906119bd565b600060405180830381865afa1580156109af573d6000803e3d6000fd5b505050506040513d6000823e3d601f19601f820116820180604052508101906109d8919061264d565b905090565b6000600460009054906101000a900473ffffffffffffffffffffffffffffffffffffffff1673ffffffffffffffffffffffffffffffffffffffff166314d585c984846040518363ffffffff1660e01b8152600401610a3c929190612696565b602060405180830381865afa158015610a59573d6000803e3d6000fd5b505050506040513d601f19601f82011682018060405250810190610a7d91906126e2565b905092915050565b60011515600960003373ffffffffffffffffffffffffffffffffffffffff1673ffffffffffffffffffffffffffffffffffffffff16815260200190815260200160002060009054906101000a900460ff16151514610ae257600080fd5b600560009054906101000a900473ffffffffffffffffffffffffffffffffffffffff1673ffffffffffffffffffffffffffffffffffffffff16632e2898398484846040518463ffffffff1660e01b8152600401610b419392919061271e565b600060405180830381600087803b158015610b5b57600080fd5b505af1158015610b6f573d6000803e3d6000fd5b50505050505050565b60008054906101000a900473ffffffffffffffffffffffffffffffffffffffff1681565b610ba46112df565b600160009054906101000a900473ffffffffffffffffffffffffffffffffffffffff1673ffffffffffffffffffffffffffffffffffffffff16634130276b336040518263ffffffff1660e01b8152600401610bff91906119bd565b600060405180830381865afa158015610c1c573d6000803e3d6000fd5b505050506040513d6000823e3d601f19601f82011682018060405250810190610c4591906127c8565b905090565b610c526112fb565b60011515600960003373ffffffffffffffffffffffffffffffffffffffff1673ffffffffffffffffffffffffffffffffffffffff16815260200190815260200160002060009054906101000a900460ff16151514610caf57600080fd5b600860003373ffffffffffffffffffffffffffffffffffffffff1673ffffffffffffffffffffffffffffffffffffffff168152602001908152602001600020604051806060016040529081600082018054610d0990611ec6565b80601f0160208091040260200160405190810160405280929190818152602001828054610d3590611ec6565b8015610d825780601f10610d5757610100808354040283529160200191610d82565b820191906000526020600020905b815481529060010190602001808311610d6557829003601f168201915b505050505081526020016001820160009054906101000a900473ffffffffffffffffffffffffffffffffffffffff1673ffffffffffffffffffffffffffffffffffffffff1673ffffffffffffffffffffffffffffffffffffffff168152602001600282015481525050905090565b60011515600960003373ffffffffffffffffffffffffffffffffffffffff1673ffffffffffffffffffffffffffffffffffffffff16815260200190815260200160002060009054906101000a900460ff16151514610e4d57600080fd5b600260009054906101000a900473ffffffffffffffffffffffffffffffffffffffff1673ffffffffffffffffffffffffffffffffffffffff16632a6150d53384846040518463ffffffff1660e01b8152600401610eac93929190612811565b600060405180830381600087803b158015610ec657600080fd5b505af1158015610eda573d6000803e3d6000fd5b505050505050565b6000600960003373ffffffffffffffffffffffffffffffffffffffff1673ffffffffffffffffffffffffffffffffffffffff16815260200190815260200160002060009054906101000a900460ff16905090565b60006040518060a001604052808673ffffffffffffffffffffffffffffffffffffffff168152602001858152602001848152602001838152602001600760009054906101000a900473ffffffffffffffffffffffffffffffffffffffff1673ffffffffffffffffffffffffffffffffffffffff16636900a3ae426040518263ffffffff1660e01b8152600401610fcc919061284f565b600060405180830381865afa158015610fe9573d6000803e3d6000fd5b505050506040513d6000823e3d601f19601f82011682018060405250810190611012919061286a565b8152509050600260009054906101000a900473ffffffffffffffffffffffffffffffffffffffff1673ffffffffffffffffffffffffffffffffffffffff16630771d24a33836040518363ffffffff1660e01b815260040161107492919061293e565b600060405180830381600087803b15801561108e57600080fd5b505af11580156110a2573d6000803e3d6000fd5b50505050600460009054906101000a900473ffffffffffffffffffffffffffffffffffffffff1673ffffffffffffffffffffffffffffffffffffffff166304a389d533836000015184602001518560400151866060015187608001516040518763ffffffff1660e01b815260040161111f9695949392919061296e565b600060405180830381600087803b15801561113957600080fd5b505af115801561114d573d6000803e3d6000fd5b505050505050505050565b6060600660009054906101000a900473ffffffffffffffffffffffffffffffffffffffff1673ffffffffffffffffffffffffffffffffffffffff16637898b91733846040518363ffffffff1660e01b81526004016111b7929190612412565b600060405180830381865afa1580156111d4573d6000803e3d6000fd5b505050506040513d6000823e3d601f19601f820116820180604052508101906111fd9190612acc565b9050919050565b600360009054906101000a900473ffffffffffffffffffffffffffffffffffffffff1673ffffffffffffffffffffffffffffffffffffffff16639aa332b43387878787876040518763ffffffff1660e01b815260040161126996959493929190612b15565b600060405180830381600087803b15801561128357600080fd5b505af1158015611297573d6000803e3d6000fd5b505050505050505050565b6040518060e00160405280606081526020016060815260200160608152602001606081526020016060815260200160608152602001606081525090565b6040518060400160405280600015158152602001606081525090565b604051806060016040528060608152602001600073ffffffffffffffffffffffffffffffffffffffff168152602001600080191681525090565b6000604051905090565b600080fd5b600080fd5b600080fd5b600080fd5b6000601f19601f8301169050919050565b7f4e487b7100000000000000000000000000000000000000000000000000000000600052604160045260246000fd5b61139c82611353565b810181811067ffffffffffffffff821117156113bb576113ba611364565b5b80604052505050565b60006113ce611335565b90506113da8282611393565b919050565b600067ffffffffffffffff8211156113fa576113f9611364565b5b61140382611353565b9050602081019050919050565b82818337600083830152505050565b600061143261142d846113df565b6113c4565b90508281526020810184848401111561144e5761144d61134e565b5b611459848285611410565b509392505050565b600082601f83011261147657611475611349565b5b813561148684826020860161141f565b91505092915050565b600080604083850312156114a6576114a561133f565b5b600083013567ffffffffffffffff8111156114c4576114c3611344565b5b6114d085828601611461565b925050602083013567ffffffffffffffff8111156114f1576114f0611344565b5b6114fd85828601611461565b9150509250929050565b60008115159050919050565b61151c81611507565b82525050565b60006020820190506115376000830184611513565b92915050565b6000602082840312156115535761155261133f565b5b600082013567ffffffffffffffff81111561157157611570611344565b5b61157d84828501611461565b91505092915050565b600073ffffffffffffffffffffffffffffffffffffffff82169050919050565b60006115b182611586565b9050919050565b6115c1816115a6565b81146115cc57600080fd5b50565b6000813590506115de816115b8565b92915050565b6000602082840312156115fa576115f961133f565b5b6000611608848285016115cf565b91505092915050565b600081519050919050565b600082825260208201905092915050565b60005b8381101561164b578082015181840152602081019050611630565b60008484015250505050565b600061166282611611565b61166c818561161c565b935061167c81856020860161162d565b61168581611353565b840191505092915050565b600060e08301600083015184820360008601526116ad8282611657565b915050602083015184820360208601526116c78282611657565b915050604083015184820360408601526116e18282611657565b915050606083015184820360608601526116fb8282611657565b915050608083015184820360808601526117158282611657565b91505060a083015184820360a086015261172f8282611657565b91505060c083015184820360c08601526117498282611657565b9150508091505092915050565b600060208201905081810360008301526117708184611690565b905092915050565b600081519050919050565b600082825260208201905092915050565b6000819050602082019050919050565b6117ad816115a6565b82525050565b600060c0830160008301516117cb60008601826117a4565b5060208301516117de60208601826117a4565b50604083015184820360408601526117f68282611657565b915050606083015184820360608601526118108282611657565b9150506080830151848203608086015261182a8282611657565b91505060a083015184820360a08601526118448282611657565b9150508091505092915050565b600061185d83836117b3565b905092915050565b6000602082019050919050565b600061187d82611778565b6118878185611783565b93508360208202850161189985611794565b8060005b858110156118d557848403895281516118b68582611851565b94506118c183611865565b925060208a0199505060018101905061189d565b50829750879550505050505092915050565b600060208201905081810360008301526119018184611872565b905092915050565b6000819050919050565b61191c81611909565b811461192757600080fd5b50565b60008135905061193981611913565b92915050565b6000806000606084860312156119585761195761133f565b5b60006119668682870161192a565b93505060206119778682870161192a565b925050604084013567ffffffffffffffff81111561199857611997611344565b5b6119a486828701611461565b9150509250925092565b6119b7816115a6565b82525050565b60006020820190506119d260008301846119ae565b92915050565b6119e181611507565b82525050565b60006040830160008301516119ff60008601826119d8565b5060208301518482036020860152611a178282611657565b9150508091505092915050565b60006020820190508181036000830152611a3e81846119e7565b905092915050565b6000819050919050565b611a5981611a46565b82525050565b60006060830160008301518482036000860152611a7c8282611657565b9150506020830151611a9160208601826117a4565b506040830151611aa46040860182611a50565b508091505092915050565b60006020820190508181036000830152611ac98184611a5f565b905092915050565b60008060408385031215611ae857611ae761133f565b5b6000611af6858286016115cf565b925050602083013567ffffffffffffffff811115611b1757611b16611344565b5b611b2385828601611461565b9150509250929050565b60008060008060808587031215611b4757611b4661133f565b5b6000611b55878288016115cf565b945050602085013567ffffffffffffffff811115611b7657611b75611344565b5b611b8287828801611461565b935050604085013567ffffffffffffffff811115611ba357611ba2611344565b5b611baf87828801611461565b925050606085013567ffffffffffffffff811115611bd057611bcf611344565b5b611bdc87828801611461565b91505092959194509250565b600081519050919050565b600082825260208201905092915050565b6000819050602082019050919050565b6000611c208383611657565b905092915050565b6000602082019050919050565b6000611c4082611be8565b611c4a8185611bf3565b935083602082028501611c5c85611c04565b8060005b85811015611c985784840389528151611c798582611c14565b9450611c8483611c28565b925060208a01995050600181019050611c60565b50829750879550505050505092915050565b60006020820190508181036000830152611cc48184611c35565b905092915050565b611cd581611507565b8114611ce057600080fd5b50565b600081359050611cf281611ccc565b92915050565b600080600080600060a08688031215611d1457611d1361133f565b5b6000611d22888289016115cf565b955050602086013567ffffffffffffffff811115611d4357611d42611344565b5b611d4f88828901611461565b9450506040611d6088828901611ce3565b935050606086013567ffffffffffffffff811115611d8157611d80611344565b5b611d8d88828901611461565b925050608086013567ffffffffffffffff811115611dae57611dad611344565b5b611dba88828901611461565b9150509295509295909350565b600082825260208201905092915050565b7f5573657220697320616c72656164792072656769737465726564000000000000600082015250565b6000611e0e601a83611dc7565b9150611e1982611dd8565b602082019050919050565b60006020820190508181036000830152611e3d81611e01565b9050919050565b600081905092915050565b6000611e5a82611611565b611e648185611e44565b9350611e7481856020860161162d565b80840191505092915050565b6000611e8c8284611e4f565b915081905092915050565b7f4e487b7100000000000000000000000000000000000000000000000000000000600052602260045260246000fd5b60006002820490506001821680611ede57607f821691505b602082108103611ef157611ef0611e97565b5b50919050565b60008190508160005260206000209050919050565b60006020601f8301049050919050565b600082821b905092915050565b600060088302611f597fffffffffffffffffffffffffffffffffffffffffffffffffffffffffffffffff82611f1c565b611f638683611f1c565b95508019841693508086168417925050509392505050565b6000819050919050565b6000611fa0611f9b611f9684611909565b611f7b565b611909565b9050919050565b6000819050919050565b611fba83611f85565b611fce611fc682611fa7565b848454611f29565b825550505050565b600090565b611fe3611fd6565b611fee818484611fb1565b505050565b5b8181101561201257612007600082611fdb565b600181019050611ff4565b5050565b601f8211156120575761202881611ef7565b61203184611f0c565b81016020851015612040578190505b61205461204c85611f0c565b830182611ff3565b50505b505050565b600082821c905092915050565b600061207a6000198460080261205c565b1980831691505092915050565b60006120938383612069565b9150826002028217905092915050565b6120ac82611611565b67ffffffffffffffff8111156120c5576120c4611364565b5b6120cf8254611ec6565b6120da828285612016565b600060209050601f83116001811461210d57600084156120fb578287015190505b6121058582612087565b86555061216d565b601f19841661211b86611ef7565b60005b828110156121435784890151825560018201915060208501945060208101905061211e565b86831015612160578489015161215c601f891682612069565b8355505b6001600288020188555050505b505050505050565b600060408201905061218a60008301856119ae565b61219760208301846119ae565b9392505050565b600080fd5b600080fd5b60006121bb6121b6846113df565b6113c4565b9050828152602081018484840111156121d7576121d661134e565b5b6121e284828561162d565b509392505050565b600082601f8301126121ff576121fe611349565b5b815161220f8482602086016121a8565b91505092915050565b600060e0828403121561222e5761222d61219e565b5b61223860e06113c4565b9050600082015167ffffffffffffffff811115612258576122576121a3565b5b612264848285016121ea565b600083015250602082015167ffffffffffffffff811115612288576122876121a3565b5b612294848285016121ea565b602083015250604082015167ffffffffffffffff8111156122b8576122b76121a3565b5b6122c4848285016121ea565b604083015250606082015167ffffffffffffffff8111156122e8576122e76121a3565b5b6122f4848285016121ea565b606083015250608082015167ffffffffffffffff811115612318576123176121a3565b5b612324848285016121ea565b60808301525060a082015167ffffffffffffffff811115612348576123476121a3565b5b612354848285016121ea565b60a08301525060c082015167ffffffffffffffff811115612378576123776121a3565b5b612384848285016121ea565b60c08301525092915050565b6000602082840312156123a6576123a561133f565b5b600082015167ffffffffffffffff8111156123c4576123c3611344565b5b6123d084828501612218565b91505092915050565b60006123e482611611565b6123ee8185611dc7565b93506123fe81856020860161162d565b61240781611353565b840191505092915050565b600060408201905061242760008301856119ae565b818103602083015261243981846123d9565b90509392505050565b600067ffffffffffffffff82111561245d5761245c611364565b5b602082029050602081019050919050565b600080fd5b600081519050612482816115b8565b92915050565b600060c0828403121561249e5761249d61219e565b5b6124a860c06113c4565b905060006124b884828501612473565b60008301525060206124cc84828501612473565b602083015250604082015167ffffffffffffffff8111156124f0576124ef6121a3565b5b6124fc848285016121ea565b604083015250606082015167ffffffffffffffff8111156125205761251f6121a3565b5b61252c848285016121ea565b606083015250608082015167ffffffffffffffff8111156125505761254f6121a3565b5b61255c848285016121ea565b60808301525060a082015167ffffffffffffffff8111156125805761257f6121a3565b5b61258c848285016121ea565b60a08301525092915050565b60006125ab6125a684612442565b6113c4565b905080838252602082019050602084028301858111156125ce576125cd61246e565b5b835b8181101561261557805167ffffffffffffffff8111156125f3576125f2611349565b5b8086016126008982612488565b855260208501945050506020810190506125d0565b5050509392505050565b600082601f83011261263457612633611349565b5b8151612644848260208601612598565b91505092915050565b6000602082840312156126635761266261133f565b5b600082015167ffffffffffffffff81111561268157612680611344565b5b61268d8482850161261f565b91505092915050565b600060408201905081810360008301526126b081856123d9565b905081810360208301526126c481846123d9565b90509392505050565b6000815190506126dc81611ccc565b92915050565b6000602082840312156126f8576126f761133f565b5b6000612706848285016126cd565b91505092915050565b61271881611909565b82525050565b6000606082019050612733600083018661270f565b612740602083018561270f565b818103604083015261275281846123d9565b9050949350505050565b6000604082840312156127725761277161219e565b5b61277c60406113c4565b9050600061278c848285016126cd565b600083015250602082015167ffffffffffffffff8111156127b0576127af6121a3565b5b6127bc848285016121ea565b60208301525092915050565b6000602082840312156127de576127dd61133f565b5b600082015167ffffffffffffffff8111156127fc576127fb611344565b5b6128088482850161275c565b91505092915050565b600060608201905061282660008301866119ae565b61283360208301856119ae565b818103604083015261284581846123d9565b9050949350505050565b6000602082019050612864600083018461270f565b92915050565b6000602082840312156128805761287f61133f565b5b600082015167ffffffffffffffff81111561289e5761289d611344565b5b6128aa848285016121ea565b91505092915050565b600060a0830160008301516128cb60008601826117a4565b50602083015184820360208601526128e38282611657565b915050604083015184820360408601526128fd8282611657565b915050606083015184820360608601526129178282611657565b915050608083015184820360808601526129318282611657565b9150508091505092915050565b600060408201905061295360008301856119ae565b818103602083015261296581846128b3565b90509392505050565b600060c08201905061298360008301896119ae565b61299060208301886119ae565b81810360408301526129a281876123d9565b905081810360608301526129b681866123d9565b905081810360808301526129ca81856123d9565b905081810360a08301526129de81846123d9565b9050979650505050505050565b600067ffffffffffffffff821115612a0657612a05611364565b5b602082029050602081019050919050565b6000612a2a612a25846129eb565b6113c4565b90508083825260208201905060208402830185811115612a4d57612a4c61246e565b5b835b81811015612a9457805167ffffffffffffffff811115612a7257612a71611349565b5b808601612a7f89826121ea565b85526020850194505050602081019050612a4f565b5050509392505050565b600082601f830112612ab357612ab2611349565b5b8151612ac3848260208601612a17565b91505092915050565b600060208284031215612ae257612ae161133f565b5b600082015167ffffffffffffffff811115612b0057612aff611344565b5b612b0c84828501612a9e565b91505092915050565b600060c082019050612b2a60008301896119ae565b612b3760208301886119ae565b8181036040830152612b4981876123d9565b9050612b586060830186611513565b8181036080830152612b6a81856123d9565b905081810360a0830152612b7e81846123d9565b905097965050505050505056fea26469706673582212200f911678cb471b1bf309734c3dc0ccfd323b297017921b28243a0917d03f6e8e64736f6c63430008170033608060405234801561001057600080fd5b50610441806100206000396000f3fe608060405234801561001057600080fd5b506004361061002b5760003560e01c80636900a3ae14610030575b600080fd5b61004a600480360381019061004591906102ce565b610060565b604051610057919061038b565b60405180910390f35b606061006b82610072565b9050919050565b60606000600161008184610140565b01905060008167ffffffffffffffff8111156100a05761009f6103ad565b5b6040519080825280601f01601f1916602001820160405280156100d25781602001600182028036833780820191505090505b509050600082602001820190505b600115610135578080600190039150507f3031323334353637383961626364656600000000000000000000000000000000600a86061a8153600a8581610129576101286103dc565b5b049450600085036100e0575b819350505050919050565b600080600090507a184f03e93ff9f4daa797ed6e38ed64bf6a1f010000000000000000831061019e577a184f03e93ff9f4daa797ed6e38ed64bf6a1f0100000000000000008381610194576101936103dc565b5b0492506040810190505b6d04ee2d6d415b85acef810000000083106101db576d04ee2d6d415b85acef810000000083816101d1576101d06103dc565b5b0492506020810190505b662386f26fc10000831061020a57662386f26fc100008381610200576101ff6103dc565b5b0492506010810190505b6305f5e1008310610233576305f5e1008381610229576102286103dc565b5b0492506008810190505b612710831061025857612710838161024e5761024d6103dc565b5b0492506004810190505b6064831061027b5760648381610271576102706103dc565b5b0492506002810190505b600a831061028a576001810190505b80915050919050565b600080fd5b6000819050919050565b6102ab81610298565b81146102b657600080fd5b50565b6000813590506102c8816102a2565b92915050565b6000602082840312156102e4576102e3610293565b5b60006102f2848285016102b9565b91505092915050565b600081519050919050565b600082825260208201905092915050565b60005b8381101561033557808201518184015260208101905061031a565b60008484015250505050565b6000601f19601f8301169050919050565b600061035d826102fb565b6103678185610306565b9350610377818560208601610317565b61038081610341565b840191505092915050565b600060208201905081810360008301526103a58184610352565b905092915050565b7f4e487b7100000000000000000000000000000000000000000000000000000000600052604160045260246000fd5b7f4e487b7100000000000000000000000000000000000000000000000000000000600052601260045260246000fdfea2646970667358221220fcb783cb922a9194c7b85b5b7852be102e9c42799987ce274ae24b2742d9a69b64736f6c63430008170033",
  "linkReferences": {},
  "deployedLinkReferences": {}
}