{
  "_format": "hh-sol-artifact-1",
  "contractName": "Integrity",
  "sourceName": "contracts/Integrity.sol",
  "abi": [
    {
      "inputs": [],
      "stateMutability": "nonpayable",
      "type": "constructor"
    },
    {
      "inputs": [
        {
          "internalType": "address",
          "name": "user",
          "type": "address"
        }
      ],
      "name": "getRegFiles",
      "outputs": [
        {
          "components": [
            {
              "internalType": "address",
              "name": "csp",
              "type": "address"
            },
            {
              "internalType": "address",
              "name": "dataOwner",
              "type": "address"
            },
            {
              "internalType": "string",
              "name": "desc",
              "type": "string"
            },
            {
              "internalType": "string",
              "name": "fileLocationHash",
              "type": "string"
            },
            {
              "internalType": "string",
              "name": "encDataHash",
              "type": "string"
            },
            {
              "internalType": "string",
              "name": "createdAt",
              "type": "string"
            }
          ],
          "internalType": "struct Integrity.RegFile[]",
          "name": "",
          "type": "tuple[]"
        }
      ],
      "stateMutability": "view",
      "type": "function"
    },
    {
      "inputs": [
        {
          "internalType": "address",
          "name": "_user",
          "type": "address"
        },
        {
          "internalType": "address",
          "name": "_csp",
          "type": "address"
        },
        {
          "internalType": "string",
          "name": "_desc",
          "type": "string"
        },
        {
          "internalType": "string",
          "name": "_fileLocHash",
          "type": "string"
        },
        {
          "internalType": "string",
          "name": "_encdataHash",
          "type": "string"
        },
        {
          "internalType": "string",
          "name": "_createdAt",
          "type": "string"
        }
      ],
      "name": "registerFile",
      "outputs": [],
      "stateMutability": "nonpayable",
      "type": "function"
    },
    {
      "inputs": [
        {
          "internalType": "address",
          "name": "_user",
          "type": "address"
        },
        {
          "internalType": "string",
          "name": "fileHash",
          "type": "string"
        }
      ],
      "name": "verifyDataOwner",
      "outputs": [
        {
          "internalType": "bool",
          "name": "",
          "type": "bool"
        }
      ],
      "stateMutability": "view",
      "type": "function"
    },
    {
      "inputs": [
        {
          "internalType": "string",
          "name": "file",
          "type": "string"
        },
        {
          "internalType": "string",
          "name": "_datahash",
          "type": "string"
        }
      ],
      "name": "verifyIntegrity",
      "outputs": [
        {
          "internalType": "bool",
          "name": "",
          "type": "bool"
        }
      ],
      "stateMutability": "view",
      "type": "function"
    }
  ],
  "bytecode": "0x6080604052604051610010906100bf565b604051809103906000f08015801561002c573d6000803e3d6000fd5b50600160006101000a81548173ffffffffffffffffffffffffffffffffffffffff021916908373ffffffffffffffffffffffffffffffffffffffff16021790555034801561007957600080fd5b50336000806101000a81548173ffffffffffffffffffffffffffffffffffffffff021916908373ffffffffffffffffffffffffffffffffffffffff1602179055506100cc565b6104618061150f83390190565b611434806100db6000396000f3fe608060405234801561001057600080fd5b506004361061004c5760003560e01c8063024e16181461005157806304a389d51461008157806314d585c91461009d5780638799041f146100cd575b600080fd5b61006b60048036038101906100669190610b3f565b6100fd565b6040516100789190610bb6565b60405180910390f35b61009b60048036038101906100969190610bd1565b610236565b005b6100b760048036038101906100b29190610cce565b6103b0565b6040516100c49190610bb6565b60405180910390f35b6100e760048036038101906100e29190610d46565b6104d7565b6040516100f49190610f61565b60405180910390f35b600080600280549050905060005b818110156102295760006002828154811061012957610128610f83565b5b906000526020600020906006020160030160405160200161014a91906110b5565b60405160208183030381529060405280519060200120905060008560405160200161017591906110fd565b60405160208183030381529060405280519060200120905080820361021a578673ffffffffffffffffffffffffffffffffffffffff16600284815481106101bf576101be610f83565b5b906000526020600020906006020160010160009054906101000a900473ffffffffffffffffffffffffffffffffffffffff1673ffffffffffffffffffffffffffffffffffffffff1603610219576001945050505050610230565b5b5050808060010191505061010b565b5060009150505b92915050565b60006040518060c001604052808773ffffffffffffffffffffffffffffffffffffffff1681526020018873ffffffffffffffffffffffffffffffffffffffff168152602001868152602001858152602001848152602001838152509050600281908060018154018082558091505060019003906000526020600020906006020160009091909190915060008201518160000160006101000a81548173ffffffffffffffffffffffffffffffffffffffff021916908373ffffffffffffffffffffffffffffffffffffffff16021790555060208201518160010160006101000a81548173ffffffffffffffffffffffffffffffffffffffff021916908373ffffffffffffffffffffffffffffffffffffffff160217905550604082015181600201908161036291906112b5565b50606082015181600301908161037891906112b5565b50608082015181600401908161038e91906112b5565b5060a08201518160050190816103a491906112b5565b50505050505050505050565b600080600090505b6002805490508110156104cb57836040516020016103d691906110fd565b6040516020818303038152906040528051906020012060028281548110610400576103ff610f83565b5b906000526020600020906006020160030160405160200161042191906110b5565b60405160208183030381529060405280519060200120036104be578260405160200161044d91906110fd565b604051602081830303815290604052805190602001206002828154811061047757610476610f83565b5b906000526020600020906006020160040160405160200161049891906110b5565b60405160208183030381529060405280519060200120036104bd5760019150506104d1565b5b80806001019150506103b8565b50600090505b92915050565b6060600060028054905067ffffffffffffffff8111156104fa576104f9610a14565b5b60405190808252806020026020018201604052801561053357816020015b610520610925565b8152602001906001900390816105185790505b5090506000805b60028054905081101561091a578473ffffffffffffffffffffffffffffffffffffffff166002828154811061057257610571610f83565b5b906000526020600020906006020160010160009054906101000a900473ffffffffffffffffffffffffffffffffffffffff1673ffffffffffffffffffffffffffffffffffffffff160361090d57600281815481106105d3576105d2610f83565b5b90600052602060002090600602016040518060c00160405290816000820160009054906101000a900473ffffffffffffffffffffffffffffffffffffffff1673ffffffffffffffffffffffffffffffffffffffff1673ffffffffffffffffffffffffffffffffffffffff1681526020016001820160009054906101000a900473ffffffffffffffffffffffffffffffffffffffff1673ffffffffffffffffffffffffffffffffffffffff1673ffffffffffffffffffffffffffffffffffffffff1681526020016002820180546106a890610fe1565b80601f01602080910402602001604051908101604052809291908181526020018280546106d490610fe1565b80156107215780601f106106f657610100808354040283529160200191610721565b820191906000526020600020905b81548152906001019060200180831161070457829003601f168201915b5050505050815260200160038201805461073a90610fe1565b80601f016020809104026020016040519081016040528092919081815260200182805461076690610fe1565b80156107b35780601f10610788576101008083540402835291602001916107b3565b820191906000526020600020905b81548152906001019060200180831161079657829003601f168201915b505050505081526020016004820180546107cc90610fe1565b80601f01602080910402602001604051908101604052809291908181526020018280546107f890610fe1565b80156108455780601f1061081a57610100808354040283529160200191610845565b820191906000526020600020905b81548152906001019060200180831161082857829003601f168201915b5050505050815260200160058201805461085e90610fe1565b80601f016020809104026020016040519081016040528092919081815260200182805461088a90610fe1565b80156108d75780601f106108ac576101008083540402835291602001916108d7565b820191906000526020600020905b8154815290600101906020018083116108ba57829003601f168201915b5050505050815250508383815181106108f3576108f2610f83565b5b60200260200101819052508180610909906113b6565b9250505b808060010191505061053a565b508192505050919050565b6040518060c00160405280600073ffffffffffffffffffffffffffffffffffffffff168152602001600073ffffffffffffffffffffffffffffffffffffffff168152602001606081526020016060815260200160608152602001606081525090565b6000604051905090565b600080fd5b600080fd5b600073ffffffffffffffffffffffffffffffffffffffff82169050919050565b60006109c68261099b565b9050919050565b6109d6816109bb565b81146109e157600080fd5b50565b6000813590506109f3816109cd565b92915050565b600080fd5b600080fd5b6000601f19601f8301169050919050565b7f4e487b7100000000000000000000000000000000000000000000000000000000600052604160045260246000fd5b610a4c82610a03565b810181811067ffffffffffffffff82111715610a6b57610a6a610a14565b5b80604052505050565b6000610a7e610987565b9050610a8a8282610a43565b919050565b600067ffffffffffffffff821115610aaa57610aa9610a14565b5b610ab382610a03565b9050602081019050919050565b82818337600083830152505050565b6000610ae2610add84610a8f565b610a74565b905082815260208101848484011115610afe57610afd6109fe565b5b610b09848285610ac0565b509392505050565b600082601f830112610b2657610b256109f9565b5b8135610b36848260208601610acf565b91505092915050565b60008060408385031215610b5657610b55610991565b5b6000610b64858286016109e4565b925050602083013567ffffffffffffffff811115610b8557610b84610996565b5b610b9185828601610b11565b9150509250929050565b60008115159050919050565b610bb081610b9b565b82525050565b6000602082019050610bcb6000830184610ba7565b92915050565b60008060008060008060c08789031215610bee57610bed610991565b5b6000610bfc89828a016109e4565b9650506020610c0d89828a016109e4565b955050604087013567ffffffffffffffff811115610c2e57610c2d610996565b5b610c3a89828a01610b11565b945050606087013567ffffffffffffffff811115610c5b57610c5a610996565b5b610c6789828a01610b11565b935050608087013567ffffffffffffffff811115610c8857610c87610996565b5b610c9489828a01610b11565b92505060a087013567ffffffffffffffff811115610cb557610cb4610996565b5b610cc189828a01610b11565b9150509295509295509295565b60008060408385031215610ce557610ce4610991565b5b600083013567ffffffffffffffff811115610d0357610d02610996565b5b610d0f85828601610b11565b925050602083013567ffffffffffffffff811115610d3057610d2f610996565b5b610d3c85828601610b11565b9150509250929050565b600060208284031215610d5c57610d5b610991565b5b6000610d6a848285016109e4565b91505092915050565b600081519050919050565b600082825260208201905092915050565b6000819050602082019050919050565b610da8816109bb565b82525050565b600081519050919050565b600082825260208201905092915050565b60005b83811015610de8578082015181840152602081019050610dcd565b60008484015250505050565b6000610dff82610dae565b610e098185610db9565b9350610e19818560208601610dca565b610e2281610a03565b840191505092915050565b600060c083016000830151610e456000860182610d9f565b506020830151610e586020860182610d9f565b5060408301518482036040860152610e708282610df4565b91505060608301518482036060860152610e8a8282610df4565b91505060808301518482036080860152610ea48282610df4565b91505060a083015184820360a0860152610ebe8282610df4565b9150508091505092915050565b6000610ed78383610e2d565b905092915050565b6000602082019050919050565b6000610ef782610d73565b610f018185610d7e565b935083602082028501610f1385610d8f565b8060005b85811015610f4f5784840389528151610f308582610ecb565b9450610f3b83610edf565b925060208a01995050600181019050610f17565b50829750879550505050505092915050565b60006020820190508181036000830152610f7b8184610eec565b905092915050565b7f4e487b7100000000000000000000000000000000000000000000000000000000600052603260045260246000fd5b7f4e487b7100000000000000000000000000000000000000000000000000000000600052602260045260246000fd5b60006002820490506001821680610ff957607f821691505b60208210810361100c5761100b610fb2565b5b50919050565b600081905092915050565b60008190508160005260206000209050919050565b6000815461103f81610fe1565b6110498186611012565b945060018216600081146110645760018114611079576110ac565b60ff19831686528115158202860193506110ac565b6110828561101d565b60005b838110156110a457815481890152600182019150602081019050611085565b838801955050505b50505092915050565b60006110c18284611032565b915081905092915050565b60006110d782610dae565b6110e18185611012565b93506110f1818560208601610dca565b80840191505092915050565b600061110982846110cc565b915081905092915050565b60006020601f8301049050919050565b600082821b905092915050565b6000600883026111617fffffffffffffffffffffffffffffffffffffffffffffffffffffffffffffffff82611124565b61116b8683611124565b95508019841693508086168417925050509392505050565b6000819050919050565b6000819050919050565b60006111b26111ad6111a884611183565b61118d565b611183565b9050919050565b6000819050919050565b6111cc83611197565b6111e06111d8826111b9565b848454611131565b825550505050565b600090565b6111f56111e8565b6112008184846111c3565b505050565b5b81811015611224576112196000826111ed565b600181019050611206565b5050565b601f8211156112695761123a8161101d565b61124384611114565b81016020851015611252578190505b61126661125e85611114565b830182611205565b50505b505050565b600082821c905092915050565b600061128c6000198460080261126e565b1980831691505092915050565b60006112a5838361127b565b9150826002028217905092915050565b6112be82610dae565b67ffffffffffffffff8111156112d7576112d6610a14565b5b6112e18254610fe1565b6112ec828285611228565b600060209050601f83116001811461131f576000841561130d578287015190505b6113178582611299565b86555061137f565b601f19841661132d8661101d565b60005b8281101561135557848901518255600182019150602085019450602081019050611330565b86831015611372578489015161136e601f89168261127b565b8355505b6001600288020188555050505b505050505050565b7f4e487b7100000000000000000000000000000000000000000000000000000000600052601160045260246000fd5b60006113c182611183565b91507fffffffffffffffffffffffffffffffffffffffffffffffffffffffffffffffff82036113f3576113f2611387565b5b60018201905091905056fea26469706673582212207a222666be539d6233093feb43e219f66ddd49264f646fe1d72d005a04a245d864736f6c63430008170033608060405234801561001057600080fd5b50610441806100206000396000f3fe608060405234801561001057600080fd5b506004361061002b5760003560e01c80636900a3ae14610030575b600080fd5b61004a600480360381019061004591906102ce565b610060565b604051610057919061038b565b60405180910390f35b606061006b82610072565b9050919050565b60606000600161008184610140565b01905060008167ffffffffffffffff8111156100a05761009f6103ad565b5b6040519080825280601f01601f1916602001820160405280156100d25781602001600182028036833780820191505090505b509050600082602001820190505b600115610135578080600190039150507f3031323334353637383961626364656600000000000000000000000000000000600a86061a8153600a8581610129576101286103dc565b5b049450600085036100e0575b819350505050919050565b600080600090507a184f03e93ff9f4daa797ed6e38ed64bf6a1f010000000000000000831061019e577a184f03e93ff9f4daa797ed6e38ed64bf6a1f0100000000000000008381610194576101936103dc565b5b0492506040810190505b6d04ee2d6d415b85acef810000000083106101db576d04ee2d6d415b85acef810000000083816101d1576101d06103dc565b5b0492506020810190505b662386f26fc10000831061020a57662386f26fc100008381610200576101ff6103dc565b5b0492506010810190505b6305f5e1008310610233576305f5e1008381610229576102286103dc565b5b0492506008810190505b612710831061025857612710838161024e5761024d6103dc565b5b0492506004810190505b6064831061027b5760648381610271576102706103dc565b5b0492506002810190505b600a831061028a576001810190505b80915050919050565b600080fd5b6000819050919050565b6102ab81610298565b81146102b657600080fd5b50565b6000813590506102c8816102a2565b92915050565b6000602082840312156102e4576102e3610293565b5b60006102f2848285016102b9565b91505092915050565b600081519050919050565b600082825260208201905092915050565b60005b8381101561033557808201518184015260208101905061031a565b60008484015250505050565b6000601f19601f8301169050919050565b600061035d826102fb565b6103678185610306565b9350610377818560208601610317565b61038081610341565b840191505092915050565b600060208201905081810360008301526103a58184610352565b905092915050565b7f4e487b7100000000000000000000000000000000000000000000000000000000600052604160045260246000fd5b7f4e487b7100000000000000000000000000000000000000000000000000000000600052601260045260246000fdfea26469706673582212208d6c24b9fd68d7779b69ea211d36c1fcc0bb28cb81e9f6ebe5e33626aeb9e6f564736f6c63430008170033",
  "linkReferences": {},
  "deployedLinkReferences": {}
}