{
  "_format": "hh-sol-artifact-1",
  "contractName": "Generate_Shares",
  "sourceName": "contracts/Generate_Shares.sol",
  "abi": [
    {
      "inputs": [],
      "name": "b",
      "outputs": [
        {
          "internalType": "uint256",
          "name": "",
          "type": "uint256"
        }
      ],
      "stateMutability": "view",
      "type": "function"
    },
    {
      "inputs": [
        {
          "internalType": "uint256",
          "name": "",
          "type": "uint256"
        }
      ],
      "name": "coeffs",
      "outputs": [
        {
          "internalType": "uint256",
          "name": "",
          "type": "uint256"
        }
      ],
      "stateMutability": "view",
      "type": "function"
    },
    {
      "inputs": [
        {
          "internalType": "uint256",
          "name": "secret",
          "type": "uint256"
        },
        {
          "internalType": "uint256",
          "name": "_n",
          "type": "uint256"
        },
        {
          "internalType": "string",
          "name": "fileHash",
          "type": "string"
        }
      ],
      "name": "input",
      "outputs": [],
      "stateMutability": "nonpayable",
      "type": "function"
    },
    {
      "inputs": [],
      "name": "k",
      "outputs": [
        {
          "internalType": "uint256",
          "name": "",
          "type": "uint256"
        }
      ],
      "stateMutability": "view",
      "type": "function"
    },
    {
      "inputs": [],
      "name": "n",
      "outputs": [
        {
          "internalType": "uint256",
          "name": "",
          "type": "uint256"
        }
      ],
      "stateMutability": "view",
      "type": "function"
    },
    {
      "inputs": [
        {
          "internalType": "string",
          "name": "fileHash",
          "type": "string"
        }
      ],
      "name": "read_Shares",
      "outputs": [
        {
          "components": [
            {
              "components": [
                {
                  "internalType": "uint256",
                  "name": "x",
                  "type": "uint256"
                },
                {
                  "internalType": "uint256",
                  "name": "y",
                  "type": "uint256"
                }
              ],
              "internalType": "struct Generate_Shares.TempShare[]",
              "name": "shares",
              "type": "tuple[]"
            },
            {
              "components": [
                {
                  "internalType": "uint256",
                  "name": "b",
                  "type": "uint256"
                },
                {
                  "internalType": "uint256",
                  "name": "t",
                  "type": "uint256"
                }
              ],
              "internalType": "struct Generate_Shares.BAndK",
              "name": "bk",
              "type": "tuple"
            }
          ],
          "internalType": "struct Generate_Shares.ShareAandB",
          "name": "",
          "type": "tuple"
        }
      ],
      "stateMutability": "view",
      "type": "function"
    },
    {
      "inputs": [],
      "name": "s",
      "outputs": [
        {
          "internalType": "uint256",
          "name": "",
          "type": "uint256"
        }
      ],
      "stateMutability": "view",
      "type": "function"
    },
    {
      "inputs": [],
      "name": "z",
      "outputs": [
        {
          "internalType": "uint256",
          "name": "",
          "type": "uint256"
        }
      ],
      "stateMutability": "view",
      "type": "function"
    }
  ],
  "bytecode": "0x6080604052612717600355600f60045560405161001b9061008f565b604051809103906000f080158015610037573d6000803e3d6000fd5b50600b60006101000a81548173ffffffffffffffffffffffffffffffffffffffff021916908373ffffffffffffffffffffffffffffffffffffffff1602179055506000600d5534801561008957600080fd5b5061009c565b6104618061143d83390190565b611392806100ab6000396000f3fe608060405234801561001057600080fd5b50600436106100885760003560e01c806386b714e21161005b57806386b714e214610115578063b4f40c6114610133578063c5d7802e14610151578063e319f7551461016f57610088565b80630a4200e61461008d5780632e289839146100bd5780632e52d606146100d95780634df7e3d0146100f7575b600080fd5b6100a760048036038101906100a2919061097b565b61019f565b6040516100b491906109b7565b60405180910390f35b6100d760048036038101906100d29190610b18565b6101c3565b005b6100e161021d565b6040516100ee91906109b7565b60405180910390f35b6100ff610223565b60405161010c91906109b7565b60405180910390f35b61011d610229565b60405161012a91906109b7565b60405180910390f35b61013b61022f565b60405161014891906109b7565b60405180910390f35b610159610235565b60405161016691906109b7565b60405180910390f35b61018960048036038101906101849190610b87565b61023b565b6040516101969190610d29565b60405180910390f35b600781815481106101af57600080fd5b906000526020600020016000915090505481565b8260008190555081600181905550816002819055506101e660045460035461032e565b6005819055506003546004546000546101ff9190610d7a565b6102099190610deb565b600681905550610218816103c9565b505050565b60015481565b60055481565b60005481565b60025481565b60065481565b61024361083a565b60006009836040516102559190610e8d565b9081526020016040518091039020805480602002602001604051908101604052809291908181526020016000905b828210156102c957838290600052602060002090600202016040518060400160405290816000820154815260200160018201548152505081526020019060010190610283565b5050505090506000600a846040516102e19190610e8d565b908152602001604051809103902060405180604001604052908160008201548152602001600182015481525050905060405180604001604052808381526020018281525092505050919050565b600080829050600080600190506001850361034f57600093505050506103c3565b5b60018611156103a457600085876103679190610ea4565b90508586886103769190610deb565b8097508198505050828161038a9190610edf565b826103959190610f57565b83809350819450505050610350565b60008112156103bc5782816103b99190610f9a565b90505b8093505050505b92915050565b6001600254101561040f576040517f08c379a00000000000000000000000000000000000000000000000000000000081526004016104069061103b565b60405180910390fd5b6008600061041d919061085a565b60076000549080600181540180825580915050600190039060005260206000200160009091909190915055600760065490806001815401808255809150506001900390600052602060002001600090919091909150556000600290505b6002548110156104d35760006064610490610706565b61049a9190610deb565b9050600781908060018154018082558091505060019003906000526020600020016000909190919091505550808060010191505061047a565b506104dc61087e565b60005b6001548110156106715760646104f3610706565b6104fd9190610deb565b8260000181815250505b60011515600c60008460000151815260200190815260200160002060009054906101000a900460ff16151503610559576064610541610706565b61054b9190610deb565b826000018181525050610507565b6001600c60008460000151815260200190815260200160002060006101000a81548160ff0219169083151502179055506105968260000151610755565b8260200181815250506105a7610898565b826000015181600001818152505082602001518160200181815250506008839080600181540180825580915050600190039060005260206000209060020201600090919091909150600082015181600001556020820151816001015550506009846040516106159190610e8d565b9081526020016040518091039020819080600181540180825580915050600190039060005260206000209060020201600090919091909150600082015181600001556020820151816001015550505080806001019150506104df565b50600554600a836040516106859190610e8d565b908152602001604051809103902060000181905550600254600a836040516106ad9190610e8d565b90815260200160405180910390206001018190555060056000905560066000905560026000905560016000905560008055600860006106ec919061085a565b600760006106fa91906108b2565b6107026107f1565b5050565b6000600d600081548092919061071b9061105b565b91905055504233600d546040516020016107379392919061113e565b6040516020818303038152906040528051906020012060001c905090565b600080600760008154811061076d5761076c61117b565b5b906000526020600020015490506000600190505b6002548110156107da57808461079791906112dd565b600782815481106107ab576107aa61117b565b5b90600052602060002001546107c09190610d7a565b826107cb9190611328565b91508080600101915050610781565b50600354816107e99190610deb565b915050919050565b60005b600154811015610837576000600c600083815260200190815260200160002060006101000a81548160ff02191690831515021790555080806001019150506107f4565b50565b6040518060400160405280606081526020016108546108d3565b81525090565b508054600082556002029060005260206000209081019061087b91906108ed565b50565b604051806040016040528060008152602001600081525090565b604051806040016040528060008152602001600081525090565b50805460008255906000526020600020908101906108d09190610914565b50565b604051806040016040528060008152602001600081525090565b5b80821115610910576000808201600090556001820160009055506002016108ee565b5090565b5b8082111561092d576000816000905550600101610915565b5090565b6000604051905090565b600080fd5b600080fd5b6000819050919050565b61095881610945565b811461096357600080fd5b50565b6000813590506109758161094f565b92915050565b6000602082840312156109915761099061093b565b5b600061099f84828501610966565b91505092915050565b6109b181610945565b82525050565b60006020820190506109cc60008301846109a8565b92915050565b600080fd5b600080fd5b6000601f19601f8301169050919050565b7f4e487b7100000000000000000000000000000000000000000000000000000000600052604160045260246000fd5b610a25826109dc565b810181811067ffffffffffffffff82111715610a4457610a436109ed565b5b80604052505050565b6000610a57610931565b9050610a638282610a1c565b919050565b600067ffffffffffffffff821115610a8357610a826109ed565b5b610a8c826109dc565b9050602081019050919050565b82818337600083830152505050565b6000610abb610ab684610a68565b610a4d565b905082815260208101848484011115610ad757610ad66109d7565b5b610ae2848285610a99565b509392505050565b600082601f830112610aff57610afe6109d2565b5b8135610b0f848260208601610aa8565b91505092915050565b600080600060608486031215610b3157610b3061093b565b5b6000610b3f86828701610966565b9350506020610b5086828701610966565b925050604084013567ffffffffffffffff811115610b7157610b70610940565b5b610b7d86828701610aea565b9150509250925092565b600060208284031215610b9d57610b9c61093b565b5b600082013567ffffffffffffffff811115610bbb57610bba610940565b5b610bc784828501610aea565b91505092915050565b600081519050919050565b600082825260208201905092915050565b6000819050602082019050919050565b610c0581610945565b82525050565b604082016000820151610c216000850182610bfc565b506020820151610c346020850182610bfc565b50505050565b6000610c468383610c0b565b60408301905092915050565b6000602082019050919050565b6000610c6a82610bd0565b610c748185610bdb565b9350610c7f83610bec565b8060005b83811015610cb0578151610c978882610c3a565b9750610ca283610c52565b925050600181019050610c83565b5085935050505092915050565b604082016000820151610cd36000850182610bfc565b506020820151610ce66020850182610bfc565b50505050565b60006060830160008301518482036000860152610d098282610c5f565b9150506020830151610d1e6020860182610cbd565b508091505092915050565b60006020820190508181036000830152610d438184610cec565b905092915050565b7f4e487b7100000000000000000000000000000000000000000000000000000000600052601160045260246000fd5b6000610d8582610945565b9150610d9083610945565b9250828202610d9e81610945565b91508282048414831517610db557610db4610d4b565b5b5092915050565b7f4e487b7100000000000000000000000000000000000000000000000000000000600052601260045260246000fd5b6000610df682610945565b9150610e0183610945565b925082610e1157610e10610dbc565b5b828206905092915050565b600081519050919050565b600081905092915050565b60005b83811015610e50578082015181840152602081019050610e35565b60008484015250505050565b6000610e6782610e1c565b610e718185610e27565b9350610e81818560208601610e32565b80840191505092915050565b6000610e998284610e5c565b915081905092915050565b6000610eaf82610945565b9150610eba83610945565b925082610eca57610ec9610dbc565b5b828204905092915050565b6000819050919050565b6000610eea82610ed5565b9150610ef583610ed5565b9250828202610f0381610ed5565b91507f80000000000000000000000000000000000000000000000000000000000000008414600084121615610f3b57610f3a610d4b565b5b8282058414831517610f5057610f4f610d4b565b5b5092915050565b6000610f6282610ed5565b9150610f6d83610ed5565b9250828203905081811260008412168282136000851215161715610f9457610f93610d4b565b5b92915050565b6000610fa582610ed5565b9150610fb083610ed5565b925082820190508281121560008312168382126000841215161715610fd857610fd7610d4b565b5b92915050565b600082825260208201905092915050565b7f696e76616c696420696e7075742077617320676976656e000000000000000000600082015250565b6000611025601783610fde565b915061103082610fef565b602082019050919050565b6000602082019050818103600083015261105481611018565b9050919050565b600061106682610945565b91507fffffffffffffffffffffffffffffffffffffffffffffffffffffffffffffffff820361109857611097610d4b565b5b600182019050919050565b6000819050919050565b6110be6110b982610945565b6110a3565b82525050565b600073ffffffffffffffffffffffffffffffffffffffff82169050919050565b60006110ef826110c4565b9050919050565b60008160601b9050919050565b600061110e826110f6565b9050919050565b600061112082611103565b9050919050565b611138611133826110e4565b611115565b82525050565b600061114a82866110ad565b60208201915061115a8285611127565b60148201915061116a82846110ad565b602082019150819050949350505050565b7f4e487b7100000000000000000000000000000000000000000000000000000000600052603260045260246000fd5b60008160011c9050919050565b6000808291508390505b6001851115611201578086048111156111dd576111dc610d4b565b5b60018516156111ec5780820291505b80810290506111fa856111aa565b94506111c1565b94509492505050565b60008261121a57600190506112d6565b8161122857600090506112d6565b816001811461123e576002811461124857611277565b60019150506112d6565b60ff84111561125a57611259610d4b565b5b8360020a91508482111561127157611270610d4b565b5b506112d6565b5060208310610133831016604e8410600b84101617156112ac5782820a9050838111156112a7576112a6610d4b565b5b6112d6565b6112b984848460016111b7565b925090508184048111156112d0576112cf610d4b565b5b81810290505b9392505050565b60006112e882610945565b91506112f383610945565b92506113207fffffffffffffffffffffffffffffffffffffffffffffffffffffffffffffffff848461120a565b905092915050565b600061133382610945565b915061133e83610945565b925082820190508082111561135657611355610d4b565b5b9291505056fea264697066735822122048ac1873463fe85bf573c7a7d548d7db613f58dfc240e12560bde7f959b1001e64736f6c63430008170033608060405234801561001057600080fd5b50610441806100206000396000f3fe608060405234801561001057600080fd5b506004361061002b5760003560e01c806391d6df7d14610030575b600080fd5b61004a600480360381019061004591906102ce565b610060565b604051610057919061038b565b60405180910390f35b606061006b82610072565b9050919050565b60606000600161008184610140565b01905060008167ffffffffffffffff8111156100a05761009f6103ad565b5b6040519080825280601f01601f1916602001820160405280156100d25781602001600182028036833780820191505090505b509050600082602001820190505b600115610135578080600190039150507f3031323334353637383961626364656600000000000000000000000000000000600a86061a8153600a8581610129576101286103dc565b5b049450600085036100e0575b819350505050919050565b600080600090507a184f03e93ff9f4daa797ed6e38ed64bf6a1f010000000000000000831061019e577a184f03e93ff9f4daa797ed6e38ed64bf6a1f0100000000000000008381610194576101936103dc565b5b0492506040810190505b6d04ee2d6d415b85acef810000000083106101db576d04ee2d6d415b85acef810000000083816101d1576101d06103dc565b5b0492506020810190505b662386f26fc10000831061020a57662386f26fc100008381610200576101ff6103dc565b5b0492506010810190505b6305f5e1008310610233576305f5e1008381610229576102286103dc565b5b0492506008810190505b612710831061025857612710838161024e5761024d6103dc565b5b0492506004810190505b6064831061027b5760648381610271576102706103dc565b5b0492506002810190505b600a831061028a576001810190505b80915050919050565b600080fd5b6000819050919050565b6102ab81610298565b81146102b657600080fd5b50565b6000813590506102c8816102a2565b92915050565b6000602082840312156102e4576102e3610293565b5b60006102f2848285016102b9565b91505092915050565b600081519050919050565b600082825260208201905092915050565b60005b8381101561033557808201518184015260208101905061031a565b60008484015250505050565b6000601f19601f8301169050919050565b600061035d826102fb565b6103678185610306565b9350610377818560208601610317565b61038081610341565b840191505092915050565b600060208201905081810360008301526103a58184610352565b905092915050565b7f4e487b7100000000000000000000000000000000000000000000000000000000600052604160045260246000fd5b7f4e487b7100000000000000000000000000000000000000000000000000000000600052601260045260246000fdfea264697066735822122033a83c8eeb8f250e0b141347e651492f8b4d948af3d535cb403f608a86e8a68464736f6c63430008170033",
  "linkReferences": {},
  "deployedLinkReferences": {}
}