{
  "_format": "hh-sol-artifact-1",
  "contractName": "LOG",
  "sourceName": "contracts/LOG.sol",
  "abi": [
    {
      "inputs": [],
      "stateMutability": "nonpayable",
      "type": "constructor"
    },
    {
      "inputs": [
        {
          "internalType": "address",
          "name": "csp",
          "type": "address"
        },
        {
          "components": [
            {
              "internalType": "address",
              "name": "user",
              "type": "address"
            },
            {
              "internalType": "string",
              "name": "fileHash",
              "type": "string"
            },
            {
              "internalType": "string",
              "name": "grantTime",
              "type": "string"
            }
          ],
          "internalType": "struct LOG.AccessLog",
          "name": "_log",
          "type": "tuple"
        }
      ],
      "name": "addAccessLog",
      "outputs": [],
      "stateMutability": "nonpayable",
      "type": "function"
    },
    {
      "inputs": [
        {
          "internalType": "address",
          "name": "csp",
          "type": "address"
        }
      ],
      "name": "getLog",
      "outputs": [
        {
          "components": [
            {
              "internalType": "address",
              "name": "user",
              "type": "address"
            },
            {
              "internalType": "string",
              "name": "fileHash",
              "type": "string"
            },
            {
              "internalType": "string",
              "name": "grantTime",
              "type": "string"
            }
          ],
          "internalType": "struct LOG.AccessLog[]",
          "name": "",
          "type": "tuple[]"
        }
      ],
      "stateMutability": "view",
      "type": "function"
    }
  ],
  "bytecode": "0x608060405234801561001057600080fd5b50336000806101000a81548173ffffffffffffffffffffffffffffffffffffffff021916908373ffffffffffffffffffffffffffffffffffffffff160217905550610b4f806100606000396000f3fe608060405234801561001057600080fd5b50600436106100365760003560e01c8063547b5c0c1461003b57806393dd86a21461006b575b600080fd5b610055600480360381019061005091906103f3565b610087565b60405161006291906105d8565b60405180910390f35b610085600480360381019061008091906107d5565b61029f565b005b6060600160008373ffffffffffffffffffffffffffffffffffffffff1673ffffffffffffffffffffffffffffffffffffffff168152602001908152602001600020805480602002602001604051908101604052809291908181526020016000905b8282101561029457838290600052602060002090600302016040518060600160405290816000820160009054906101000a900473ffffffffffffffffffffffffffffffffffffffff1673ffffffffffffffffffffffffffffffffffffffff1673ffffffffffffffffffffffffffffffffffffffff16815260200160018201805461017190610860565b80601f016020809104026020016040519081016040528092919081815260200182805461019d90610860565b80156101ea5780601f106101bf576101008083540402835291602001916101ea565b820191906000526020600020905b8154815290600101906020018083116101cd57829003601f168201915b5050505050815260200160028201805461020390610860565b80601f016020809104026020016040519081016040528092919081815260200182805461022f90610860565b801561027c5780601f106102515761010080835404028352916020019161027c565b820191906000526020600020905b81548152906001019060200180831161025f57829003601f168201915b505050505081525050815260200190600101906100e8565b505050509050919050565b600160008373ffffffffffffffffffffffffffffffffffffffff1673ffffffffffffffffffffffffffffffffffffffff16815260200190815260200160002081908060018154018082558091505060019003906000526020600020906003020160009091909190915060008201518160000160006101000a81548173ffffffffffffffffffffffffffffffffffffffff021916908373ffffffffffffffffffffffffffffffffffffffff16021790555060208201518160010190816103649190610a47565b50604082015181600201908161037a9190610a47565b5050505050565b6000604051905090565b600080fd5b600080fd5b600073ffffffffffffffffffffffffffffffffffffffff82169050919050565b60006103c082610395565b9050919050565b6103d0816103b5565b81146103db57600080fd5b50565b6000813590506103ed816103c7565b92915050565b6000602082840312156104095761040861038b565b5b6000610417848285016103de565b91505092915050565b600081519050919050565b600082825260208201905092915050565b6000819050602082019050919050565b610455816103b5565b82525050565b600081519050919050565b600082825260208201905092915050565b60005b8381101561049557808201518184015260208101905061047a565b60008484015250505050565b6000601f19601f8301169050919050565b60006104bd8261045b565b6104c78185610466565b93506104d7818560208601610477565b6104e0816104a1565b840191505092915050565b6000606083016000830151610503600086018261044c565b506020830151848203602086015261051b82826104b2565b9150506040830151848203604086015261053582826104b2565b9150508091505092915050565b600061054e83836104eb565b905092915050565b6000602082019050919050565b600061056e82610420565b610578818561042b565b93508360208202850161058a8561043c565b8060005b858110156105c657848403895281516105a78582610542565b94506105b283610556565b925060208a0199505060018101905061058e565b50829750879550505050505092915050565b600060208201905081810360008301526105f28184610563565b905092915050565b600080fd5b7f4e487b7100000000000000000000000000000000000000000000000000000000600052604160045260246000fd5b610637826104a1565b810181811067ffffffffffffffff82111715610656576106556105ff565b5b80604052505050565b6000610669610381565b9050610675828261062e565b919050565b600080fd5b600080fd5b600080fd5b600067ffffffffffffffff8211156106a4576106a36105ff565b5b6106ad826104a1565b9050602081019050919050565b82818337600083830152505050565b60006106dc6106d784610689565b61065f565b9050828152602081018484840111156106f8576106f7610684565b5b6107038482856106ba565b509392505050565b600082601f8301126107205761071f61067f565b5b81356107308482602086016106c9565b91505092915050565b60006060828403121561074f5761074e6105fa565b5b610759606061065f565b90506000610769848285016103de565b600083015250602082013567ffffffffffffffff81111561078d5761078c61067a565b5b6107998482850161070b565b602083015250604082013567ffffffffffffffff8111156107bd576107bc61067a565b5b6107c98482850161070b565b60408301525092915050565b600080604083850312156107ec576107eb61038b565b5b60006107fa858286016103de565b925050602083013567ffffffffffffffff81111561081b5761081a610390565b5b61082785828601610739565b9150509250929050565b7f4e487b7100000000000000000000000000000000000000000000000000000000600052602260045260246000fd5b6000600282049050600182168061087857607f821691505b60208210810361088b5761088a610831565b5b50919050565b60008190508160005260206000209050919050565b60006020601f8301049050919050565b600082821b905092915050565b6000600883026108f37fffffffffffffffffffffffffffffffffffffffffffffffffffffffffffffffff826108b6565b6108fd86836108b6565b95508019841693508086168417925050509392505050565b6000819050919050565b6000819050919050565b600061094461093f61093a84610915565b61091f565b610915565b9050919050565b6000819050919050565b61095e83610929565b61097261096a8261094b565b8484546108c3565b825550505050565b600090565b61098761097a565b610992818484610955565b505050565b5b818110156109b6576109ab60008261097f565b600181019050610998565b5050565b601f8211156109fb576109cc81610891565b6109d5846108a6565b810160208510156109e4578190505b6109f86109f0856108a6565b830182610997565b50505b505050565b600082821c905092915050565b6000610a1e60001984600802610a00565b1980831691505092915050565b6000610a378383610a0d565b9150826002028217905092915050565b610a508261045b565b67ffffffffffffffff811115610a6957610a686105ff565b5b610a738254610860565b610a7e8282856109ba565b600060209050601f831160018114610ab15760008415610a9f578287015190505b610aa98582610a2b565b865550610b11565b601f198416610abf86610891565b60005b82811015610ae757848901518255600182019150602085019450602081019050610ac2565b86831015610b045784890151610b00601f891682610a0d565b8355505b6001600288020188555050505b50505050505056fea264697066735822122088d590344ea124240c64c45e3cdf7c323299a5955c8cb7f5b58794ecb7e781a064736f6c63430008170033",
  "linkReferences": {},
  "deployedLinkReferences": {}
}