{
  "_format": "hh-sol-artifact-1",
  "contractName": "CSP",
  "sourceName": "contracts/CSP.sol",
  "abi": [
    {
      "inputs": [
        {
          "internalType": "address",
          "name": "_identityCon",
          "type": "address"
        },
        {
          "internalType": "address",
          "name": "_logCon",
          "type": "address"
        },
        {
          "internalType": "address",
          "name": "_aclCon",
          "type": "address"
        },
        {
          "internalType": "address",
          "name": "_integrityCon",
          "type": "address"
        }
      ],
      "stateMutability": "nonpayable",
      "type": "constructor"
    },
    {
      "inputs": [],
      "name": "checkCSP",
      "outputs": [
        {
          "internalType": "bool",
          "name": "",
          "type": "bool"
        }
      ],
      "stateMutability": "view",
      "type": "function"
    },
    {
      "inputs": [
        {
          "internalType": "address",
          "name": "",
          "type": "address"
        }
      ],
      "name": "fireCred",
      "outputs": [
        {
          "internalType": "bytes",
          "name": "",
          "type": "bytes"
        }
      ],
      "stateMutability": "view",
      "type": "function"
    },
    {
      "inputs": [],
      "name": "getAllFiles",
      "outputs": [
        {
          "components": [
            {
              "internalType": "address",
              "name": "csp",
              "type": "address"
            },
            {
              "internalType": "string",
              "name": "desc",
              "type": "string"
            },
            {
              "internalType": "string",
              "name": "fileLocationHash",
              "type": "string"
            },
            {
              "internalType": "string",
              "name": "encDataHash",
              "type": "string"
            },
            {
              "internalType": "string",
              "name": "createdAt",
              "type": "string"
            }
          ],
          "internalType": "struct CSP.File[]",
          "name": "",
          "type": "tuple[]"
        }
      ],
      "stateMutability": "view",
      "type": "function"
    },
    {
      "inputs": [],
      "name": "getAllRegisteredCSPs",
      "outputs": [
        {
          "components": [
            {
              "internalType": "string",
              "name": "CSP_name",
              "type": "string"
            },
            {
              "internalType": "address",
              "name": "CSP_Address",
              "type": "address"
            }
          ],
          "internalType": "struct CSP.Csp[]",
          "name": "",
          "type": "tuple[]"
        }
      ],
      "stateMutability": "view",
      "type": "function"
    },
    {
      "inputs": [],
      "name": "getCSPDetail",
      "outputs": [
        {
          "components": [
            {
              "internalType": "string",
              "name": "CSP_name",
              "type": "string"
            },
            {
              "internalType": "address",
              "name": "CSP_Address",
              "type": "address"
            }
          ],
          "internalType": "struct CSP.Csp",
          "name": "",
          "type": "tuple"
        }
      ],
      "stateMutability": "view",
      "type": "function"
    },
    {
      "inputs": [],
      "name": "getFireConfig",
      "outputs": [
        {
          "components": [
            {
              "internalType": "string",
              "name": "apiKey",
              "type": "string"
            },
            {
              "internalType": "string",
              "name": "authDomain",
              "type": "string"
            },
            {
              "internalType": "string",
              "name": "ProjectId",
              "type": "string"
            },
            {
              "internalType": "string",
              "name": "storageBucket",
              "type": "string"
            },
            {
              "internalType": "string",
              "name": "messagingSenderId",
              "type": "string"
            },
            {
              "internalType": "string",
              "name": "appId",
              "type": "string"
            },
            {
              "internalType": "string",
              "name": "measurmentId",
              "type": "string"
            }
          ],
          "internalType": "struct CSP.FirebaseConfig",
          "name": "",
          "type": "tuple"
        }
      ],
      "stateMutability": "view",
      "type": "function"
    },
    {
      "inputs": [
        {
          "internalType": "address",
          "name": "_user",
          "type": "address"
        },
        {
          "internalType": "address",
          "name": "_csp",
          "type": "address"
        }
      ],
      "name": "getFireCred",
      "outputs": [
        {
          "components": [
            {
              "internalType": "string",
              "name": "apiKey",
              "type": "string"
            },
            {
              "internalType": "string",
              "name": "authDomain",
              "type": "string"
            },
            {
              "internalType": "string",
              "name": "ProjectId",
              "type": "string"
            },
            {
              "internalType": "string",
              "name": "storageBucket",
              "type": "string"
            },
            {
              "internalType": "string",
              "name": "messagingSenderId",
              "type": "string"
            },
            {
              "internalType": "string",
              "name": "appId",
              "type": "string"
            },
            {
              "internalType": "string",
              "name": "measurmentId",
              "type": "string"
            }
          ],
          "internalType": "struct CSP.FirebaseConfig",
          "name": "",
          "type": "tuple"
        }
      ],
      "stateMutability": "view",
      "type": "function"
    },
    {
      "inputs": [],
      "name": "getGrantFiles",
      "outputs": [
        {
          "components": [
            {
              "internalType": "string",
              "name": "fileHash",
              "type": "string"
            },
            {
              "internalType": "string",
              "name": "location",
              "type": "string"
            }
          ],
          "internalType": "struct CSP.Grant[]",
          "name": "",
          "type": "tuple[]"
        }
      ],
      "stateMutability": "view",
      "type": "function"
    },
    {
      "inputs": [],
      "name": "getListedALLFiles",
      "outputs": [
        {
          "components": [
            {
              "internalType": "string",
              "name": "fileHash",
              "type": "string"
            },
            {
              "internalType": "string",
              "name": "location",
              "type": "string"
            },
            {
              "internalType": "string",
              "name": "createdAt",
              "type": "string"
            }
          ],
          "internalType": "struct CSP.FileLocation[]",
          "name": "",
          "type": "tuple[]"
        }
      ],
      "stateMutability": "view",
      "type": "function"
    },
    {
      "inputs": [],
      "name": "getLog",
      "outputs": [
        {
          "components": [
            {
              "internalType": "address",
              "name": "user",
              "type": "address"
            },
            {
              "internalType": "string",
              "name": "fileHash",
              "type": "string"
            },
            {
              "internalType": "string",
              "name": "grantTime",
              "type": "string"
            }
          ],
          "internalType": "struct LOG.AccessLog[]",
          "name": "",
          "type": "tuple[]"
        }
      ],
      "stateMutability": "view",
      "type": "function"
    },
    {
      "inputs": [
        {
          "internalType": "address",
          "name": "",
          "type": "address"
        },
        {
          "internalType": "uint256",
          "name": "",
          "type": "uint256"
        }
      ],
      "name": "grantedAccess",
      "outputs": [
        {
          "internalType": "string",
          "name": "fileHash",
          "type": "string"
        },
        {
          "internalType": "string",
          "name": "location",
          "type": "string"
        }
      ],
      "stateMutability": "view",
      "type": "function"
    },
    {
      "inputs": [],
      "name": "integrityCon",
      "outputs": [
        {
          "internalType": "contract Integrity",
          "name": "",
          "type": "address"
        }
      ],
      "stateMutability": "view",
      "type": "function"
    },
    {
      "inputs": [
        {
          "components": [
            {
              "internalType": "string",
              "name": "fileHash",
              "type": "string"
            },
            {
              "internalType": "string",
              "name": "location",
              "type": "string"
            },
            {
              "internalType": "string",
              "name": "createdAt",
              "type": "string"
            }
          ],
          "internalType": "struct CSP.FileLocation[]",
          "name": "fileLocations",
          "type": "tuple[]"
        }
      ],
      "name": "listStoredFiles",
      "outputs": [],
      "stateMutability": "nonpayable",
      "type": "function"
    },
    {
      "inputs": [
        {
          "internalType": "address",
          "name": "",
          "type": "address"
        },
        {
          "internalType": "uint256",
          "name": "",
          "type": "uint256"
        }
      ],
      "name": "listedFiles",
      "outputs": [
        {
          "internalType": "string",
          "name": "fileHash",
          "type": "string"
        },
        {
          "internalType": "string",
          "name": "location",
          "type": "string"
        },
        {
          "internalType": "string",
          "name": "createdAt",
          "type": "string"
        }
      ],
      "stateMutability": "view",
      "type": "function"
    },
    {
      "inputs": [
        {
          "internalType": "string",
          "name": "_CSP_name",
          "type": "string"
        },
        {
          "internalType": "string",
          "name": "_apikey",
          "type": "string"
        },
        {
          "internalType": "string",
          "name": "_authDomain",
          "type": "string"
        },
        {
          "internalType": "string",
          "name": "_projectId",
          "type": "string"
        },
        {
          "internalType": "string",
          "name": "_storageBucket",
          "type": "string"
        },
        {
          "internalType": "string",
          "name": "_messagingSenderId",
          "type": "string"
        },
        {
          "internalType": "string",
          "name": "_appId",
          "type": "string"
        },
        {
          "internalType": "string",
          "name": "_measurmentId",
          "type": "string"
        }
      ],
      "name": "registerCSP",
      "outputs": [
        {
          "internalType": "bool",
          "name": "",
          "type": "bool"
        }
      ],
      "stateMutability": "nonpayable",
      "type": "function"
    },
    {
      "inputs": [
        {
          "internalType": "address",
          "name": "_user",
          "type": "address"
        },
        {
          "internalType": "address",
          "name": "_csp",
          "type": "address"
        },
        {
          "internalType": "string",
          "name": "_fileHash",
          "type": "string"
        }
      ],
      "name": "requestFile",
      "outputs": [],
      "stateMutability": "nonpayable",
      "type": "function"
    },
    {
      "inputs": [
        {
          "internalType": "address",
          "name": "",
          "type": "address"
        },
        {
          "internalType": "uint256",
          "name": "",
          "type": "uint256"
        }
      ],
      "name": "requests",
      "outputs": [
        {
          "internalType": "address",
          "name": "user",
          "type": "address"
        },
        {
          "internalType": "string",
          "name": "fileHash",
          "type": "string"
        },
        {
          "internalType": "bool",
          "name": "isGranted",
          "type": "bool"
        }
      ],
      "stateMutability": "view",
      "type": "function"
    },
    {
      "inputs": [
        {
          "internalType": "address",
          "name": "_user",
          "type": "address"
        },
        {
          "components": [
            {
              "internalType": "address",
              "name": "csp",
              "type": "address"
            },
            {
              "internalType": "string",
              "name": "desc",
              "type": "string"
            },
            {
              "internalType": "string",
              "name": "fileLocationHash",
              "type": "string"
            },
            {
              "internalType": "string",
              "name": "encDataHash",
              "type": "string"
            },
            {
              "internalType": "string",
              "name": "createdAt",
              "type": "string"
            }
          ],
          "internalType": "struct CSP.File",
          "name": "_file",
          "type": "tuple"
        }
      ],
      "name": "uploadFile",
      "outputs": [],
      "stateMutability": "nonpayable",
      "type": "function"
    }
  ],
  "bytecode": "0x60806040526040516200001290620001f1565b604051809103906000f0801580156200002f573d6000803e3d6000fd5b50600560006101000a81548173ffffffffffffffffffffffffffffffffffffffff021916908373ffffffffffffffffffffffffffffffffffffffff1602179055503480156200007d57600080fd5b506040516200569b3803806200569b8339818101604052810190620000a3919062000269565b336000806101000a81548173ffffffffffffffffffffffffffffffffffffffff021916908373ffffffffffffffffffffffffffffffffffffffff16021790555083600160006101000a81548173ffffffffffffffffffffffffffffffffffffffff021916908373ffffffffffffffffffffffffffffffffffffffff16021790555082600360006101000a81548173ffffffffffffffffffffffffffffffffffffffff021916908373ffffffffffffffffffffffffffffffffffffffff16021790555081600460006101000a81548173ffffffffffffffffffffffffffffffffffffffff021916908373ffffffffffffffffffffffffffffffffffffffff16021790555080600260006101000a81548173ffffffffffffffffffffffffffffffffffffffff021916908373ffffffffffffffffffffffffffffffffffffffff16021790555050505050620002db565b610461806200523a83390190565b600080fd5b600073ffffffffffffffffffffffffffffffffffffffff82169050919050565b6000620002318262000204565b9050919050565b620002438162000224565b81146200024f57600080fd5b50565b600081519050620002638162000238565b92915050565b60008060008060808587031215620002865762000285620001ff565b5b6000620002968782880162000252565b9450506020620002a98782880162000252565b9350506040620002bc8782880162000252565b9250506060620002cf8782880162000252565b91505092959194509250565b614f4f80620002eb6000396000f3fe608060405234801561001057600080fd5b50600436106101165760003560e01c806385e1a738116100a2578063b4e0552711610071578063b4e05527146102f8578063c326f59f14610316578063d9f4a19d14610348578063f3974cfe14610366578063ff24b5d51461038457610116565b806385e1a7381461025a578063899b5ff51461028a578063909e4ab6146102a85780639ecebe2a146102c657610116565b80632a6150d5116100e95780632a6150d5146101a35780634513798a146101bf57806354378cab146101ef578063651a004d146102205780636f96cbd81461023c57610116565b80630771d24a1461011b5780631bb7e1cd146101375780631bceca6414610155578063226381b614610173575b600080fd5b610135600480360381019061013091906131be565b6103a2565b005b61013f6105d7565b60405161014c91906132e5565b60405180910390f35b61015d610716565b60405161016a91906133cd565b60405180910390f35b61018d600480360381019061018891906133ef565b610850565b60405161019a91906133cd565b60405180910390f35b6101bd60048036038101906101b8919061342f565b6109eb565b005b6101d960048036038101906101d4919061349e565b611a2f565b6040516101e69190613520565b60405180910390f35b61020960048036038101906102049190613578565b611acf565b604051610217929190613602565b60405180910390f35b61023a600480360381019061023591906137d7565b611c20565b005b610244611d0a565b604051610251919061383b565b60405180910390f35b610274600480360381019061026f9190613856565b611d5e565b604051610281919061383b565b60405180910390f35b610292612137565b60405161029f9190613af2565b60405180910390f35b6102b06122f7565b6040516102bd9190613c2d565b60405180910390f35b6102e060048036038101906102db9190613578565b6123fc565b6040516102ef93929190613c5e565b60405180910390f35b6103006124f8565b60405161030d9190613d9b565b60405180910390f35b610330600480360381019061032b9190613578565b61263f565b60405161033f93929190613dbd565b60405180910390f35b61035061281e565b60405161035d9190613f29565b60405180910390f35b61036e612a70565b60405161037b9190613faa565b60405180910390f35b61038c612a96565b6040516103999190614112565b60405180910390f35b6000600160009054906101000a900473ffffffffffffffffffffffffffffffffffffffff1673ffffffffffffffffffffffffffffffffffffffff16634130276b846040518263ffffffff1660e01b81526004016103ff9190614134565b600060405180830381865afa15801561041c573d6000803e3d6000fd5b505050506040513d6000823e3d601f19601f820116820180604052508101906104459190614257565b905060011515816000015115151461045c57600080fd5b600560009054906101000a900473ffffffffffffffffffffffffffffffffffffffff1673ffffffffffffffffffffffffffffffffffffffff16636900a3ae426040518263ffffffff1660e01b81526004016104b791906142af565b600060405180830381865afa1580156104d4573d6000803e3d6000fd5b505050506040513d6000823e3d601f19601f820116820180604052508101906104fd91906142ca565b8260800181905250600b82908060018154018082558091505060019003906000526020600020906005020160009091909190915060008201518160000160006101000a81548173ffffffffffffffffffffffffffffffffffffffff021916908373ffffffffffffffffffffffffffffffffffffffff160217905550602082015181600101908161058d9190614515565b5060408201518160020190816105a39190614515565b5060608201518160030190816105b99190614515565b5060808201518160040190816105cf9190614515565b505050505050565b6105df612e5a565b600960003373ffffffffffffffffffffffffffffffffffffffff1673ffffffffffffffffffffffffffffffffffffffff16815260200190815260200160002060405180604001604052908160008201805461063990614342565b80601f016020809104026020016040519081016040528092919081815260200182805461066590614342565b80156106b25780601f10610687576101008083540402835291602001916106b2565b820191906000526020600020905b81548152906001019060200180831161069557829003601f168201915b505050505081526020016001820160009054906101000a900473ffffffffffffffffffffffffffffffffffffffff1673ffffffffffffffffffffffffffffffffffffffff1673ffffffffffffffffffffffffffffffffffffffff1681525050905090565b61071e612e8a565b60011515600760003373ffffffffffffffffffffffffffffffffffffffff1673ffffffffffffffffffffffffffffffffffffffff16815260200190815260200160002060009054906101000a900460ff1615151461077b57600080fd5b61084b600660003373ffffffffffffffffffffffffffffffffffffffff1673ffffffffffffffffffffffffffffffffffffffff16815260200190815260200160002080546107c890614342565b80601f01602080910402602001604051908101604052809291908181526020018280546107f490614342565b80156108415780601f1061081657610100808354040283529160200191610841565b820191906000526020600020905b81548152906001019060200180831161082457829003601f168201915b5050505050612d93565b905090565b610858612e8a565b6000600160009054906101000a900473ffffffffffffffffffffffffffffffffffffffff1673ffffffffffffffffffffffffffffffffffffffff16634130276b856040518263ffffffff1660e01b81526004016108b59190614134565b600060405180830381865afa1580156108d2573d6000803e3d6000fd5b505050506040513d6000823e3d601f19601f820116820180604052508101906108fb9190614257565b905060011515816000015115151461091257600080fd5b6109e2600660008573ffffffffffffffffffffffffffffffffffffffff1673ffffffffffffffffffffffffffffffffffffffff168152602001908152602001600020805461095f90614342565b80601f016020809104026020016040519081016040528092919081815260200182805461098b90614342565b80156109d85780601f106109ad576101008083540402835291602001916109d8565b820191906000526020600020905b8154815290600101906020018083116109bb57829003601f168201915b5050505050612d93565b91505092915050565b6000600160009054906101000a900473ffffffffffffffffffffffffffffffffffffffff1673ffffffffffffffffffffffffffffffffffffffff16634130276b856040518263ffffffff1660e01b8152600401610a489190614134565b600060405180830381865afa158015610a65573d6000803e3d6000fd5b505050506040513d6000823e3d601f19601f82011682018060405250810190610a8e9190614257565b9050600115158160000151151514610adb576040517f08c379a0000000000000000000000000000000000000000000000000000000008152600401610ad290614633565b60405180910390fd5b60011515600460009054906101000a900473ffffffffffffffffffffffffffffffffffffffff1673ffffffffffffffffffffffffffffffffffffffff1663bf3df26b85856040518363ffffffff1660e01b8152600401610b3c929190614653565b602060405180830381865afa158015610b59573d6000803e3d6000fd5b505050506040513d601f19601f82011682018060405250810190610b7d9190614683565b15150361127f57610b8c612ec7565b84816000019073ffffffffffffffffffffffffffffffffffffffff16908173ffffffffffffffffffffffffffffffffffffffff16815250508281602001819052506001816040019015159081151581525050600d60008573ffffffffffffffffffffffffffffffffffffffff1673ffffffffffffffffffffffffffffffffffffffff16815260200190815260200160002081908060018154018082558091505060019003906000526020600020906003020160009091909190915060008201518160000160006101000a81548173ffffffffffffffffffffffffffffffffffffffff021916908373ffffffffffffffffffffffffffffffffffffffff1602179055506020820151816001019081610ca39190614515565b5060408201518160020160006101000a81548160ff021916908315150217905550505060005b600c60008673ffffffffffffffffffffffffffffffffffffffff1673ffffffffffffffffffffffffffffffffffffffff16815260200190815260200160002080549050811015611278578380519060200120600c60008773ffffffffffffffffffffffffffffffffffffffff1673ffffffffffffffffffffffffffffffffffffffff1681526020019081526020016000208281548110610d6c57610d6b6146b0565b5b9060005260206000209060030201600001604051610d8a9190614782565b60405180910390200361126b57600080600090505b600e60008973ffffffffffffffffffffffffffffffffffffffff1673ffffffffffffffffffffffffffffffffffffffff16815260200190815260200160002080549050811015610e71576000600e60008a73ffffffffffffffffffffffffffffffffffffffff1673ffffffffffffffffffffffffffffffffffffffff1681526020019081526020016000208281548110610e3c57610e3b6146b0565b5b90600052602060002090600202016000018054610e5890614342565b905014610e6457600191505b8080600101915050610d9f565b5060001515811515036112695760006040518060400160405280600c60008a73ffffffffffffffffffffffffffffffffffffffff1673ffffffffffffffffffffffffffffffffffffffff1681526020019081526020016000208581548110610edc57610edb6146b0565b5b90600052602060002090600302016000018054610ef890614342565b80601f0160208091040260200160405190810160405280929190818152602001828054610f2490614342565b8015610f715780601f10610f4657610100808354040283529160200191610f71565b820191906000526020600020905b815481529060010190602001808311610f5457829003601f168201915b50505050508152602001600c60008a73ffffffffffffffffffffffffffffffffffffffff1673ffffffffffffffffffffffffffffffffffffffff1681526020019081526020016000208581548110610fcc57610fcb6146b0565b5b90600052602060002090600302016001018054610fe890614342565b80601f016020809104026020016040519081016040528092919081815260200182805461101490614342565b80156110615780601f1061103657610100808354040283529160200191611061565b820191906000526020600020905b81548152906001019060200180831161104457829003601f168201915b50505050508152509050600e60008973ffffffffffffffffffffffffffffffffffffffff1673ffffffffffffffffffffffffffffffffffffffff16815260200190815260200160002081908060018154018082558091505060019003906000526020600020906002020160009091909190915060008201518160000190816110e99190614515565b5060208201518160010190816110ff9190614515565b505050600060405180606001604052808a73ffffffffffffffffffffffffffffffffffffffff168152602001888152602001600560009054906101000a900473ffffffffffffffffffffffffffffffffffffffff1673ffffffffffffffffffffffffffffffffffffffff16636900a3ae426040518263ffffffff1660e01b815260040161118c91906142af565b600060405180830381865afa1580156111a9573d6000803e3d6000fd5b505050506040513d6000823e3d601f19601f820116820180604052508101906111d291906142ca565b8152509050600360009054906101000a900473ffffffffffffffffffffffffffffffffffffffff1673ffffffffffffffffffffffffffffffffffffffff166393dd86a289836040518363ffffffff1660e01b81526004016112349291906147f0565b600060405180830381600087803b15801561124e57600080fd5b505af1158015611262573d6000803e3d6000fd5b5050505050505b505b8080600101915050610cc9565b5050611a29565b60011515600260009054906101000a900473ffffffffffffffffffffffffffffffffffffffff1673ffffffffffffffffffffffffffffffffffffffff1663024e161886856040518363ffffffff1660e01b81526004016112e0929190614653565b602060405180830381865afa1580156112fd573d6000803e3d6000fd5b505050506040513d601f19601f820116820180604052508101906113219190614683565b151503611a2357611330612ec7565b84816000019073ffffffffffffffffffffffffffffffffffffffff16908173ffffffffffffffffffffffffffffffffffffffff16815250508281602001819052506001816040019015159081151581525050600d60008573ffffffffffffffffffffffffffffffffffffffff1673ffffffffffffffffffffffffffffffffffffffff16815260200190815260200160002081908060018154018082558091505060019003906000526020600020906003020160009091909190915060008201518160000160006101000a81548173ffffffffffffffffffffffffffffffffffffffff021916908373ffffffffffffffffffffffffffffffffffffffff16021790555060208201518160010190816114479190614515565b5060408201518160020160006101000a81548160ff021916908315150217905550505060005b600c60008673ffffffffffffffffffffffffffffffffffffffff1673ffffffffffffffffffffffffffffffffffffffff16815260200190815260200160002080549050811015611a1c578380519060200120600c60008773ffffffffffffffffffffffffffffffffffffffff1673ffffffffffffffffffffffffffffffffffffffff16815260200190815260200160002082815481106115105761150f6146b0565b5b906000526020600020906003020160000160405161152e9190614782565b604051809103902003611a0f57600080600090505b600e60008973ffffffffffffffffffffffffffffffffffffffff1673ffffffffffffffffffffffffffffffffffffffff16815260200190815260200160002080549050811015611615576000600e60008a73ffffffffffffffffffffffffffffffffffffffff1673ffffffffffffffffffffffffffffffffffffffff16815260200190815260200160002082815481106115e0576115df6146b0565b5b906000526020600020906002020160000180546115fc90614342565b90501461160857600191505b8080600101915050611543565b506000151581151503611a0d5760006040518060400160405280600c60008a73ffffffffffffffffffffffffffffffffffffffff1673ffffffffffffffffffffffffffffffffffffffff16815260200190815260200160002085815481106116805761167f6146b0565b5b9060005260206000209060030201600001805461169c90614342565b80601f01602080910402602001604051908101604052809291908181526020018280546116c890614342565b80156117155780601f106116ea57610100808354040283529160200191611715565b820191906000526020600020905b8154815290600101906020018083116116f857829003601f168201915b50505050508152602001600c60008a73ffffffffffffffffffffffffffffffffffffffff1673ffffffffffffffffffffffffffffffffffffffff16815260200190815260200160002085815481106117705761176f6146b0565b5b9060005260206000209060030201600101805461178c90614342565b80601f01602080910402602001604051908101604052809291908181526020018280546117b890614342565b80156118055780601f106117da57610100808354040283529160200191611805565b820191906000526020600020905b8154815290600101906020018083116117e857829003601f168201915b50505050508152509050600e60008973ffffffffffffffffffffffffffffffffffffffff1673ffffffffffffffffffffffffffffffffffffffff168152602001908152602001600020819080600181540180825580915050600190039060005260206000209060020201600090919091909150600082015181600001908161188d9190614515565b5060208201518160010190816118a39190614515565b505050600060405180606001604052808a73ffffffffffffffffffffffffffffffffffffffff168152602001888152602001600560009054906101000a900473ffffffffffffffffffffffffffffffffffffffff1673ffffffffffffffffffffffffffffffffffffffff16636900a3ae426040518263ffffffff1660e01b815260040161193091906142af565b600060405180830381865afa15801561194d573d6000803e3d6000fd5b505050506040513d6000823e3d601f19601f8201168201806040525081019061197691906142ca565b8152509050600360009054906101000a900473ffffffffffffffffffffffffffffffffffffffff1673ffffffffffffffffffffffffffffffffffffffff166393dd86a289836040518363ffffffff1660e01b81526004016119d89291906147f0565b600060405180830381600087803b1580156119f257600080fd5b505af1158015611a06573d6000803e3d6000fd5b5050505050505b505b808060010191505061146d565b5050611a28565b600080fd5b5b50505050565b60066020528060005260406000206000915090508054611a4e90614342565b80601f0160208091040260200160405190810160405280929190818152602001828054611a7a90614342565b8015611ac75780601f10611a9c57610100808354040283529160200191611ac7565b820191906000526020600020905b815481529060010190602001808311611aaa57829003601f168201915b505050505081565b600e6020528160005260406000208181548110611aeb57600080fd5b906000526020600020906002020160009150915050806000018054611b0f90614342565b80601f0160208091040260200160405190810160405280929190818152602001828054611b3b90614342565b8015611b885780601f10611b5d57610100808354040283529160200191611b88565b820191906000526020600020905b815481529060010190602001808311611b6b57829003601f168201915b505050505090806001018054611b9d90614342565b80601f0160208091040260200160405190810160405280929190818152602001828054611bc990614342565b8015611c165780601f10611beb57610100808354040283529160200191611c16565b820191906000526020600020905b815481529060010190602001808311611bf957829003601f168201915b5050505050905082565b60005b8151811015611d06576000828281518110611c4157611c406146b0565b5b60200260200101519050600c60003373ffffffffffffffffffffffffffffffffffffffff1673ffffffffffffffffffffffffffffffffffffffff1681526020019081526020016000208190806001815401808255809150506001900390600052602060002090600302016000909190919091506000820151816000019081611cc99190614515565b506020820151816001019081611cdf9190614515565b506040820151816002019081611cf59190614515565b505050508080600101915050611c23565b5050565b6000600760003373ffffffffffffffffffffffffffffffffffffffff1673ffffffffffffffffffffffffffffffffffffffff16815260200190815260200160002060009054906101000a900460ff16905090565b6000600760003373ffffffffffffffffffffffffffffffffffffffff1673ffffffffffffffffffffffffffffffffffffffff16815260200190815260200160002060009054906101000a900460ff1615611ded576040517f08c379a0000000000000000000000000000000000000000000000000000000008152600401611de49061486c565b60405180910390fd5b60005b600a80549050811015611ebc5789604051602001611e0e91906148c8565b60405160208183030381529060405280519060200120600a8281548110611e3857611e376146b0565b5b9060005260206000209060020201600001604051602001611e599190614962565b6040516020818303038152906040528051906020012003611eaf576040517f08c379a0000000000000000000000000000000000000000000000000000000008152600401611ea6906149eb565b60405180910390fd5b8080600101915050611df0565b50611ec5612e5a565b33816020019073ffffffffffffffffffffffffffffffffffffffff16908173ffffffffffffffffffffffffffffffffffffffff1681525050898160000181905250600a8190806001815401808255809150506001900390600052602060002090600202016000909190919091506000820151816000019081611f479190614515565b5060208201518160010160006101000a81548173ffffffffffffffffffffffffffffffffffffffff021916908373ffffffffffffffffffffffffffffffffffffffff16021790555050506001600760003373ffffffffffffffffffffffffffffffffffffffff1673ffffffffffffffffffffffffffffffffffffffff16815260200190815260200160002060006101000a81548160ff02191690831515021790555080600960003373ffffffffffffffffffffffffffffffffffffffff1673ffffffffffffffffffffffffffffffffffffffff168152602001908152602001600020600082015181600001908161203e9190614515565b5060208201518160010160006101000a81548173ffffffffffffffffffffffffffffffffffffffff021916908373ffffffffffffffffffffffffffffffffffffffff160217905550905050612091612e8a565b898160000181905250888160200181905250878160400181905250868160600181905250858160800181905250848160a00181905250838160c001819052506120d981612e09565b600660003373ffffffffffffffffffffffffffffffffffffffff1673ffffffffffffffffffffffffffffffffffffffff16815260200190815260200160002090816121249190614a66565b5060019250505098975050505050505050565b6060600e60003373ffffffffffffffffffffffffffffffffffffffff1673ffffffffffffffffffffffffffffffffffffffff168152602001908152602001600020805480602002602001604051908101604052809291908181526020016000905b828210156122ee57838290600052602060002090600202016040518060400160405290816000820180546121cb90614342565b80601f01602080910402602001604051908101604052809291908181526020018280546121f790614342565b80156122445780601f1061221957610100808354040283529160200191612244565b820191906000526020600020905b81548152906001019060200180831161222757829003601f168201915b5050505050815260200160018201805461225d90614342565b80601f016020809104026020016040519081016040528092919081815260200182805461228990614342565b80156122d65780601f106122ab576101008083540402835291602001916122d6565b820191906000526020600020905b8154815290600101906020018083116122b957829003601f168201915b50505050508152505081526020019060010190612198565b50505050905090565b606060011515600760003373ffffffffffffffffffffffffffffffffffffffff1673ffffffffffffffffffffffffffffffffffffffff16815260200190815260200160002060009054906101000a900460ff1615151461235657600080fd5b600360009054906101000a900473ffffffffffffffffffffffffffffffffffffffff1673ffffffffffffffffffffffffffffffffffffffff1663547b5c0c336040518263ffffffff1660e01b81526004016123b19190614134565b600060405180830381865afa1580156123ce573d6000803e3d6000fd5b505050506040513d6000823e3d601f19601f820116820180604052508101906123f79190614cca565b905090565b600d602052816000526040600020818154811061241857600080fd5b9060005260206000209060030201600091509150508060000160009054906101000a900473ffffffffffffffffffffffffffffffffffffffff169080600101805461246290614342565b80601f016020809104026020016040519081016040528092919081815260200182805461248e90614342565b80156124db5780601f106124b0576101008083540402835291602001916124db565b820191906000526020600020905b8154815290600101906020018083116124be57829003601f168201915b5050505050908060020160009054906101000a900460ff16905083565b6060600a805480602002602001604051908101604052809291908181526020016000905b82821015612636578382906000526020600020906002020160405180604001604052908160008201805461254f90614342565b80601f016020809104026020016040519081016040528092919081815260200182805461257b90614342565b80156125c85780601f1061259d576101008083540402835291602001916125c8565b820191906000526020600020905b8154815290600101906020018083116125ab57829003601f168201915b505050505081526020016001820160009054906101000a900473ffffffffffffffffffffffffffffffffffffffff1673ffffffffffffffffffffffffffffffffffffffff1673ffffffffffffffffffffffffffffffffffffffff16815250508152602001906001019061251c565b50505050905090565b600c602052816000526040600020818154811061265b57600080fd5b90600052602060002090600302016000915091505080600001805461267f90614342565b80601f01602080910402602001604051908101604052809291908181526020018280546126ab90614342565b80156126f85780601f106126cd576101008083540402835291602001916126f8565b820191906000526020600020905b8154815290600101906020018083116126db57829003601f168201915b50505050509080600101805461270d90614342565b80601f016020809104026020016040519081016040528092919081815260200182805461273990614342565b80156127865780601f1061275b57610100808354040283529160200191612786565b820191906000526020600020905b81548152906001019060200180831161276957829003601f168201915b50505050509080600201805461279b90614342565b80601f01602080910402602001604051908101604052809291908181526020018280546127c790614342565b80156128145780601f106127e957610100808354040283529160200191612814565b820191906000526020600020905b8154815290600101906020018083116127f757829003601f168201915b5050505050905083565b6060600c60003373ffffffffffffffffffffffffffffffffffffffff1673ffffffffffffffffffffffffffffffffffffffff168152602001908152602001600020805480602002602001604051908101604052809291908181526020016000905b82821015612a6757838290600052602060002090600302016040518060600160405290816000820180546128b290614342565b80601f01602080910402602001604051908101604052809291908181526020018280546128de90614342565b801561292b5780601f106129005761010080835404028352916020019161292b565b820191906000526020600020905b81548152906001019060200180831161290e57829003601f168201915b5050505050815260200160018201805461294490614342565b80601f016020809104026020016040519081016040528092919081815260200182805461297090614342565b80156129bd5780601f10612992576101008083540402835291602001916129bd565b820191906000526020600020905b8154815290600101906020018083116129a057829003601f168201915b505050505081526020016002820180546129d690614342565b80601f0160208091040260200160405190810160405280929190818152602001828054612a0290614342565b8015612a4f5780601f10612a2457610100808354040283529160200191612a4f565b820191906000526020600020905b815481529060010190602001808311612a3257829003601f168201915b5050505050815250508152602001906001019061287f565b50505050905090565b600260009054906101000a900473ffffffffffffffffffffffffffffffffffffffff1681565b6060600b805480602002602001604051908101604052809291908181526020016000905b82821015612d8a57838290600052602060002090600502016040518060a00160405290816000820160009054906101000a900473ffffffffffffffffffffffffffffffffffffffff1673ffffffffffffffffffffffffffffffffffffffff1673ffffffffffffffffffffffffffffffffffffffff168152602001600182018054612b4390614342565b80601f0160208091040260200160405190810160405280929190818152602001828054612b6f90614342565b8015612bbc5780601f10612b9157610100808354040283529160200191612bbc565b820191906000526020600020905b815481529060010190602001808311612b9f57829003601f168201915b50505050508152602001600282018054612bd590614342565b80601f0160208091040260200160405190810160405280929190818152602001828054612c0190614342565b8015612c4e5780601f10612c2357610100808354040283529160200191612c4e565b820191906000526020600020905b815481529060010190602001808311612c3157829003601f168201915b50505050508152602001600382018054612c6790614342565b80601f0160208091040260200160405190810160405280929190818152602001828054612c9390614342565b8015612ce05780601f10612cb557610100808354040283529160200191612ce0565b820191906000526020600020905b815481529060010190602001808311612cc357829003601f168201915b50505050508152602001600482018054612cf990614342565b80601f0160208091040260200160405190810160405280929190818152602001828054612d2590614342565b8015612d725780601f10612d4757610100808354040283529160200191612d72565b820191906000526020600020905b815481529060010190602001808311612d5557829003601f168201915b50505050508152505081526020019060010190612aba565b50505050905090565b612d9b612e8a565b600080600080600080600088806020019051810190612dba9190614d13565b96509650965096509650965096506040518060e0016040528088815260200187815260200186815260200185815260200184815260200183815260200182815250975050505050505050919050565b6060816000015182602001518360400151846060015185608001518660a001518760c00151604051602001612e449796959493929190614e79565b6040516020818303038152906040529050919050565b604051806040016040528060608152602001600073ffffffffffffffffffffffffffffffffffffffff1681525090565b6040518060e00160405280606081526020016060815260200160608152602001606081526020016060815260200160608152602001606081525090565b6040518060600160405280600073ffffffffffffffffffffffffffffffffffffffff168152602001606081526020016000151581525090565b6000604051905090565b600080fd5b600080fd5b600073ffffffffffffffffffffffffffffffffffffffff82169050919050565b6000612f3f82612f14565b9050919050565b612f4f81612f34565b8114612f5a57600080fd5b50565b600081359050612f6c81612f46565b92915050565b600080fd5b6000601f19601f8301169050919050565b7f4e487b7100000000000000000000000000000000000000000000000000000000600052604160045260246000fd5b612fc082612f77565b810181811067ffffffffffffffff82111715612fdf57612fde612f88565b5b80604052505050565b6000612ff2612f00565b9050612ffe8282612fb7565b919050565b600080fd5b600080fd5b600080fd5b600067ffffffffffffffff82111561302d5761302c612f88565b5b61303682612f77565b9050602081019050919050565b82818337600083830152505050565b600061306561306084613012565b612fe8565b9050828152602081018484840111156130815761308061300d565b5b61308c848285613043565b509392505050565b600082601f8301126130a9576130a8613008565b5b81356130b9848260208601613052565b91505092915050565b600060a082840312156130d8576130d7612f72565b5b6130e260a0612fe8565b905060006130f284828501612f5d565b600083015250602082013567ffffffffffffffff81111561311657613115613003565b5b61312284828501613094565b602083015250604082013567ffffffffffffffff81111561314657613145613003565b5b61315284828501613094565b604083015250606082013567ffffffffffffffff81111561317657613175613003565b5b61318284828501613094565b606083015250608082013567ffffffffffffffff8111156131a6576131a5613003565b5b6131b284828501613094565b60808301525092915050565b600080604083850312156131d5576131d4612f0a565b5b60006131e385828601612f5d565b925050602083013567ffffffffffffffff81111561320457613203612f0f565b5b613210858286016130c2565b9150509250929050565b600081519050919050565b600082825260208201905092915050565b60005b83811015613254578082015181840152602081019050613239565b60008484015250505050565b600061326b8261321a565b6132758185613225565b9350613285818560208601613236565b61328e81612f77565b840191505092915050565b6132a281612f34565b82525050565b600060408301600083015184820360008601526132c58282613260565b91505060208301516132da6020860182613299565b508091505092915050565b600060208201905081810360008301526132ff81846132a8565b905092915050565b600060e08301600083015184820360008601526133248282613260565b9150506020830151848203602086015261333e8282613260565b915050604083015184820360408601526133588282613260565b915050606083015184820360608601526133728282613260565b9150506080830151848203608086015261338c8282613260565b91505060a083015184820360a08601526133a68282613260565b91505060c083015184820360c08601526133c08282613260565b9150508091505092915050565b600060208201905081810360008301526133e78184613307565b905092915050565b6000806040838503121561340657613405612f0a565b5b600061341485828601612f5d565b925050602061342585828601612f5d565b9150509250929050565b60008060006060848603121561344857613447612f0a565b5b600061345686828701612f5d565b935050602061346786828701612f5d565b925050604084013567ffffffffffffffff81111561348857613487612f0f565b5b61349486828701613094565b9150509250925092565b6000602082840312156134b4576134b3612f0a565b5b60006134c284828501612f5d565b91505092915050565b600081519050919050565b600082825260208201905092915050565b60006134f2826134cb565b6134fc81856134d6565b935061350c818560208601613236565b61351581612f77565b840191505092915050565b6000602082019050818103600083015261353a81846134e7565b905092915050565b6000819050919050565b61355581613542565b811461356057600080fd5b50565b6000813590506135728161354c565b92915050565b6000806040838503121561358f5761358e612f0a565b5b600061359d85828601612f5d565b92505060206135ae85828601613563565b9150509250929050565b600082825260208201905092915050565b60006135d48261321a565b6135de81856135b8565b93506135ee818560208601613236565b6135f781612f77565b840191505092915050565b6000604082019050818103600083015261361c81856135c9565b9050818103602083015261363081846135c9565b90509392505050565b600067ffffffffffffffff82111561365457613653612f88565b5b602082029050602081019050919050565b600080fd5b6000606082840312156136805761367f612f72565b5b61368a6060612fe8565b9050600082013567ffffffffffffffff8111156136aa576136a9613003565b5b6136b684828501613094565b600083015250602082013567ffffffffffffffff8111156136da576136d9613003565b5b6136e684828501613094565b602083015250604082013567ffffffffffffffff81111561370a57613709613003565b5b61371684828501613094565b60408301525092915050565b600061373561373084613639565b612fe8565b9050808382526020820190506020840283018581111561375857613757613665565b5b835b8181101561379f57803567ffffffffffffffff81111561377d5761377c613008565b5b80860161378a898261366a565b8552602085019450505060208101905061375a565b5050509392505050565b600082601f8301126137be576137bd613008565b5b81356137ce848260208601613722565b91505092915050565b6000602082840312156137ed576137ec612f0a565b5b600082013567ffffffffffffffff81111561380b5761380a612f0f565b5b613817848285016137a9565b91505092915050565b60008115159050919050565b61383581613820565b82525050565b6000602082019050613850600083018461382c565b92915050565b600080600080600080600080610100898b03121561387757613876612f0a565b5b600089013567ffffffffffffffff81111561389557613894612f0f565b5b6138a18b828c01613094565b985050602089013567ffffffffffffffff8111156138c2576138c1612f0f565b5b6138ce8b828c01613094565b975050604089013567ffffffffffffffff8111156138ef576138ee612f0f565b5b6138fb8b828c01613094565b965050606089013567ffffffffffffffff81111561391c5761391b612f0f565b5b6139288b828c01613094565b955050608089013567ffffffffffffffff81111561394957613948612f0f565b5b6139558b828c01613094565b94505060a089013567ffffffffffffffff81111561397657613975612f0f565b5b6139828b828c01613094565b93505060c089013567ffffffffffffffff8111156139a3576139a2612f0f565b5b6139af8b828c01613094565b92505060e089013567ffffffffffffffff8111156139d0576139cf612f0f565b5b6139dc8b828c01613094565b9150509295985092959890939650565b600081519050919050565b600082825260208201905092915050565b6000819050602082019050919050565b60006040830160008301518482036000860152613a358282613260565b91505060208301518482036020860152613a4f8282613260565b9150508091505092915050565b6000613a688383613a18565b905092915050565b6000602082019050919050565b6000613a88826139ec565b613a9281856139f7565b935083602082028501613aa485613a08565b8060005b85811015613ae05784840389528151613ac18582613a5c565b9450613acc83613a70565b925060208a01995050600181019050613aa8565b50829750879550505050505092915050565b60006020820190508181036000830152613b0c8184613a7d565b905092915050565b600081519050919050565b600082825260208201905092915050565b6000819050602082019050919050565b6000606083016000830151613b586000860182613299565b5060208301518482036020860152613b708282613260565b91505060408301518482036040860152613b8a8282613260565b9150508091505092915050565b6000613ba38383613b40565b905092915050565b6000602082019050919050565b6000613bc382613b14565b613bcd8185613b1f565b935083602082028501613bdf85613b30565b8060005b85811015613c1b5784840389528151613bfc8582613b97565b9450613c0783613bab565b925060208a01995050600181019050613be3565b50829750879550505050505092915050565b60006020820190508181036000830152613c478184613bb8565b905092915050565b613c5881612f34565b82525050565b6000606082019050613c736000830186613c4f565b8181036020830152613c8581856135c9565b9050613c94604083018461382c565b949350505050565b600081519050919050565b600082825260208201905092915050565b6000819050602082019050919050565b60006040830160008301518482036000860152613ce58282613260565b9150506020830151613cfa6020860182613299565b508091505092915050565b6000613d118383613cc8565b905092915050565b6000602082019050919050565b6000613d3182613c9c565b613d3b8185613ca7565b935083602082028501613d4d85613cb8565b8060005b85811015613d895784840389528151613d6a8582613d05565b9450613d7583613d19565b925060208a01995050600181019050613d51565b50829750879550505050505092915050565b60006020820190508181036000830152613db58184613d26565b905092915050565b60006060820190508181036000830152613dd781866135c9565b90508181036020830152613deb81856135c9565b90508181036040830152613dff81846135c9565b9050949350505050565b600081519050919050565b600082825260208201905092915050565b6000819050602082019050919050565b60006060830160008301518482036000860152613e528282613260565b91505060208301518482036020860152613e6c8282613260565b91505060408301518482036040860152613e868282613260565b9150508091505092915050565b6000613e9f8383613e35565b905092915050565b6000602082019050919050565b6000613ebf82613e09565b613ec98185613e14565b935083602082028501613edb85613e25565b8060005b85811015613f175784840389528151613ef88582613e93565b9450613f0383613ea7565b925060208a01995050600181019050613edf565b50829750879550505050505092915050565b60006020820190508181036000830152613f438184613eb4565b905092915050565b6000819050919050565b6000613f70613f6b613f6684612f14565b613f4b565b612f14565b9050919050565b6000613f8282613f55565b9050919050565b6000613f9482613f77565b9050919050565b613fa481613f89565b82525050565b6000602082019050613fbf6000830184613f9b565b92915050565b600081519050919050565b600082825260208201905092915050565b6000819050602082019050919050565b600060a0830160008301516140096000860182613299565b50602083015184820360208601526140218282613260565b9150506040830151848203604086015261403b8282613260565b915050606083015184820360608601526140558282613260565b9150506080830151848203608086015261406f8282613260565b9150508091505092915050565b60006140888383613ff1565b905092915050565b6000602082019050919050565b60006140a882613fc5565b6140b28185613fd0565b9350836020820285016140c485613fe1565b8060005b8581101561410057848403895281516140e1858261407c565b94506140ec83614090565b925060208a019950506001810190506140c8565b50829750879550505050505092915050565b6000602082019050818103600083015261412c818461409d565b905092915050565b60006020820190506141496000830184613c4f565b92915050565b61415881613820565b811461416357600080fd5b50565b6000815190506141758161414f565b92915050565b600061418e61418984613012565b612fe8565b9050828152602081018484840111156141aa576141a961300d565b5b6141b5848285613236565b509392505050565b600082601f8301126141d2576141d1613008565b5b81516141e284826020860161417b565b91505092915050565b60006040828403121561420157614200612f72565b5b61420b6040612fe8565b9050600061421b84828501614166565b600083015250602082015167ffffffffffffffff81111561423f5761423e613003565b5b61424b848285016141bd565b60208301525092915050565b60006020828403121561426d5761426c612f0a565b5b600082015167ffffffffffffffff81111561428b5761428a612f0f565b5b614297848285016141eb565b91505092915050565b6142a981613542565b82525050565b60006020820190506142c460008301846142a0565b92915050565b6000602082840312156142e0576142df612f0a565b5b600082015167ffffffffffffffff8111156142fe576142fd612f0f565b5b61430a848285016141bd565b91505092915050565b7f4e487b7100000000000000000000000000000000000000000000000000000000600052602260045260246000fd5b6000600282049050600182168061435a57607f821691505b60208210810361436d5761436c614313565b5b50919050565b60008190508160005260206000209050919050565b60006020601f8301049050919050565b600082821b905092915050565b6000600883026143d57fffffffffffffffffffffffffffffffffffffffffffffffffffffffffffffffff82614398565b6143df8683614398565b95508019841693508086168417925050509392505050565b600061441261440d61440884613542565b613f4b565b613542565b9050919050565b6000819050919050565b61442c836143f7565b61444061443882614419565b8484546143a5565b825550505050565b600090565b614455614448565b614460818484614423565b505050565b5b818110156144845761447960008261444d565b600181019050614466565b5050565b601f8211156144c95761449a81614373565b6144a384614388565b810160208510156144b2578190505b6144c66144be85614388565b830182614465565b50505b505050565b600082821c905092915050565b60006144ec600019846008026144ce565b1980831691505092915050565b600061450583836144db565b9150826002028217905092915050565b61451e8261321a565b67ffffffffffffffff81111561453757614536612f88565b5b6145418254614342565b61454c828285614488565b600060209050601f83116001811461457f576000841561456d578287015190505b61457785826144f9565b8655506145df565b601f19841661458d86614373565b60005b828110156145b557848901518255600182019150602085019450602081019050614590565b868310156145d257848901516145ce601f8916826144db565b8355505b6001600288020188555050505b505050505050565b7f5573657220766572696669636174696f6e206661696c65640000000000000000600082015250565b600061461d6018836135b8565b9150614628826145e7565b602082019050919050565b6000602082019050818103600083015261464c81614610565b9050919050565b60006040820190506146686000830185613c4f565b818103602083015261467a81846135c9565b90509392505050565b60006020828403121561469957614698612f0a565b5b60006146a784828501614166565b91505092915050565b7f4e487b7100000000000000000000000000000000000000000000000000000000600052603260045260246000fd5b600081905092915050565b60008190508160005260206000209050919050565b6000815461470c81614342565b61471681866146df565b94506001821660008114614731576001811461474657614779565b60ff1983168652811515820286019350614779565b61474f856146ea565b60005b8381101561477157815481890152600182019150602081019050614752565b838801955050505b50505092915050565b600061478e82846146ff565b915081905092915050565b60006060830160008301516147b16000860182613299565b50602083015184820360208601526147c98282613260565b915050604083015184820360408601526147e38282613260565b9150508091505092915050565b60006040820190506148056000830185613c4f565b81810360208301526148178184614799565b90509392505050565b7f43535020416c7265616479205265676973746572656400000000000000000000600082015250565b60006148566016836135b8565b915061486182614820565b602082019050919050565b6000602082019050818103600083015261488581614849565b9050919050565b600081905092915050565b60006148a28261321a565b6148ac818561488c565b93506148bc818560208601613236565b80840191505092915050565b60006148d48284614897565b915081905092915050565b600081546148ec81614342565b6148f6818661488c565b94506001821660008114614911576001811461492657614959565b60ff1983168652811515820286019350614959565b61492f85614373565b60005b8381101561495157815481890152600182019150602081019050614932565b838801955050505b50505092915050565b600061496e82846148df565b915081905092915050565b7f43535020616c726561647920526567697374657265642077697468207468697360008201527f206e616d65000000000000000000000000000000000000000000000000000000602082015250565b60006149d56025836135b8565b91506149e082614979565b604082019050919050565b60006020820190508181036000830152614a04816149c8565b9050919050565b60008190508160005260206000209050919050565b601f821115614a6157614a3281614a0b565b614a3b84614388565b81016020851015614a4a578190505b614a5e614a5685614388565b830182614465565b50505b505050565b614a6f826134cb565b67ffffffffffffffff811115614a8857614a87612f88565b5b614a928254614342565b614a9d828285614a20565b600060209050601f831160018114614ad05760008415614abe578287015190505b614ac885826144f9565b865550614b30565b601f198416614ade86614a0b565b60005b82811015614b0657848901518255600182019150602085019450602081019050614ae1565b86831015614b235784890151614b1f601f8916826144db565b8355505b6001600288020188555050505b505050505050565b600067ffffffffffffffff821115614b5357614b52612f88565b5b602082029050602081019050919050565b600081519050614b7381612f46565b92915050565b600060608284031215614b8f57614b8e612f72565b5b614b996060612fe8565b90506000614ba984828501614b64565b600083015250602082015167ffffffffffffffff811115614bcd57614bcc613003565b5b614bd9848285016141bd565b602083015250604082015167ffffffffffffffff811115614bfd57614bfc613003565b5b614c09848285016141bd565b60408301525092915050565b6000614c28614c2384614b38565b612fe8565b90508083825260208201905060208402830185811115614c4b57614c4a613665565b5b835b81811015614c9257805167ffffffffffffffff811115614c7057614c6f613008565b5b808601614c7d8982614b79565b85526020850194505050602081019050614c4d565b5050509392505050565b600082601f830112614cb157614cb0613008565b5b8151614cc1848260208601614c15565b91505092915050565b600060208284031215614ce057614cdf612f0a565b5b600082015167ffffffffffffffff811115614cfe57614cfd612f0f565b5b614d0a84828501614c9c565b91505092915050565b600080600080600080600060e0888a031215614d3257614d31612f0a565b5b600088015167ffffffffffffffff811115614d5057614d4f612f0f565b5b614d5c8a828b016141bd565b975050602088015167ffffffffffffffff811115614d7d57614d7c612f0f565b5b614d898a828b016141bd565b965050604088015167ffffffffffffffff811115614daa57614da9612f0f565b5b614db68a828b016141bd565b955050606088015167ffffffffffffffff811115614dd757614dd6612f0f565b5b614de38a828b016141bd565b945050608088015167ffffffffffffffff811115614e0457614e03612f0f565b5b614e108a828b016141bd565b93505060a088015167ffffffffffffffff811115614e3157614e30612f0f565b5b614e3d8a828b016141bd565b92505060c088015167ffffffffffffffff811115614e5e57614e5d612f0f565b5b614e6a8a828b016141bd565b91505092959891949750929550565b600060e0820190508181036000830152614e93818a6135c9565b90508181036020830152614ea781896135c9565b90508181036040830152614ebb81886135c9565b90508181036060830152614ecf81876135c9565b90508181036080830152614ee381866135c9565b905081810360a0830152614ef781856135c9565b905081810360c0830152614f0b81846135c9565b90509897505050505050505056fea26469706673582212200ee1d5fc9afda9deca291336086a102a8af77140155c98ec2aa3a993672ec7d464736f6c63430008170033608060405234801561001057600080fd5b50610441806100206000396000f3fe608060405234801561001057600080fd5b506004361061002b5760003560e01c80636900a3ae14610030575b600080fd5b61004a600480360381019061004591906102ce565b610060565b604051610057919061038b565b60405180910390f35b606061006b82610072565b9050919050565b60606000600161008184610140565b01905060008167ffffffffffffffff8111156100a05761009f6103ad565b5b6040519080825280601f01601f1916602001820160405280156100d25781602001600182028036833780820191505090505b509050600082602001820190505b600115610135578080600190039150507f3031323334353637383961626364656600000000000000000000000000000000600a86061a8153600a8581610129576101286103dc565b5b049450600085036100e0575b819350505050919050565b600080600090507a184f03e93ff9f4daa797ed6e38ed64bf6a1f010000000000000000831061019e577a184f03e93ff9f4daa797ed6e38ed64bf6a1f0100000000000000008381610194576101936103dc565b5b0492506040810190505b6d04ee2d6d415b85acef810000000083106101db576d04ee2d6d415b85acef810000000083816101d1576101d06103dc565b5b0492506020810190505b662386f26fc10000831061020a57662386f26fc100008381610200576101ff6103dc565b5b0492506010810190505b6305f5e1008310610233576305f5e1008381610229576102286103dc565b5b0492506008810190505b612710831061025857612710838161024e5761024d6103dc565b5b0492506004810190505b6064831061027b5760648381610271576102706103dc565b5b0492506002810190505b600a831061028a576001810190505b80915050919050565b600080fd5b6000819050919050565b6102ab81610298565b81146102b657600080fd5b50565b6000813590506102c8816102a2565b92915050565b6000602082840312156102e4576102e3610293565b5b60006102f2848285016102b9565b91505092915050565b600081519050919050565b600082825260208201905092915050565b60005b8381101561033557808201518184015260208101905061031a565b60008484015250505050565b6000601f19601f8301169050919050565b600061035d826102fb565b6103678185610306565b9350610377818560208601610317565b61038081610341565b840191505092915050565b600060208201905081810360008301526103a58184610352565b905092915050565b7f4e487b7100000000000000000000000000000000000000000000000000000000600052604160045260246000fd5b7f4e487b7100000000000000000000000000000000000000000000000000000000600052601260045260246000fdfea264697066735822122084e6c23feabb414e42cb2a1db389270eadf5bfd30ccb27b118e9ca303dca937164736f6c63430008170033",
  "linkReferences": {},
  "deployedLinkReferences": {}
}