{
  "_format": "hh-sol-artifact-1",
  "contractName": "Identity",
  "sourceName": "contracts/Identity.sol",
  "abi": [
    {
      "inputs": [],
      "stateMutability": "nonpayable",
      "type": "constructor"
    },
    {
      "inputs": [
        {
          "internalType": "address",
          "name": "_user",
          "type": "address"
        }
      ],
      "name": "deleteToken",
      "outputs": [],
      "stateMutability": "nonpayable",
      "type": "function"
    },
    {
      "inputs": [
        {
          "internalType": "address",
          "name": "_user",
          "type": "address"
        }
      ],
      "name": "requestToken",
      "outputs": [],
      "stateMutability": "nonpayable",
      "type": "function"
    },
    {
      "inputs": [
        {
          "internalType": "address",
          "name": "",
          "type": "address"
        }
      ],
      "name": "tokens",
      "outputs": [
        {
          "internalType": "bytes",
          "name": "",
          "type": "bytes"
        }
      ],
      "stateMutability": "view",
      "type": "function"
    },
    {
      "inputs": [
        {
          "internalType": "address",
          "name": "_user",
          "type": "address"
        }
      ],
      "name": "verifyToken",
      "outputs": [
        {
          "components": [
            {
              "internalType": "bool",
              "name": "success",
              "type": "bool"
            },
            {
              "internalType": "string",
              "name": "message",
              "type": "string"
            }
          ],
          "internalType": "struct Identity.VerificationResult",
          "name": "",
          "type": "tuple"
        }
      ],
      "stateMutability": "view",
      "type": "function"
    }
  ],
  "bytecode": "0x6080604052604051610010906100bf565b604051809103906000f08015801561002c573d6000803e3d6000fd5b50600160006101000a81548173ffffffffffffffffffffffffffffffffffffffff021916908373ffffffffffffffffffffffffffffffffffffffff16021790555034801561007957600080fd5b50336000806101000a81548173ffffffffffffffffffffffffffffffffffffffff021916908373ffffffffffffffffffffffffffffffffffffffff1602179055506100cc565b610461806116c383390190565b6115e8806100db6000396000f3fe608060405234801561001057600080fd5b506004361061004c5760003560e01c80634130276b14610051578063a037eca914610081578063e48603391461009d578063f069f712146100cd575b600080fd5b61006b60048036038101906100669190610b17565b6100e9565b6040516100789190610c2c565b60405180910390f35b61009b60048036038101906100969190610b17565b6105d5565b005b6100b760048036038101906100b29190610b17565b6108b4565b6040516100c49190610ca3565b60405180910390f35b6100e760048036038101906100e29190610b17565b610954565b005b6100f16109ee565b6000600260008473ffffffffffffffffffffffffffffffffffffffff1673ffffffffffffffffffffffffffffffffffffffff168152602001908152602001600020805461013d90610cf4565b905014610514576000610216600260008573ffffffffffffffffffffffffffffffffffffffff1673ffffffffffffffffffffffffffffffffffffffff168152602001908152602001600020805461019390610cf4565b80601f01602080910402602001604051908101604052809291908181526020018280546101bf90610cf4565b801561020c5780601f106101e15761010080835404028352916020019161020c565b820191906000526020600020905b8154815290600101906020018083116101ef57829003601f168201915b50505050506109a2565b90506000838260200151836040015160008054906101000a900473ffffffffffffffffffffffffffffffffffffffff166040516020016102599493929190610d98565b6040516020818303038152906040528051906020012060405160200161027f9190610e11565b60405160208183030381529060405290506000818051906020012090506000836060015180519060200120905080820361044d574284604001511115610386576040518060400160405280600115158152602001600160009054906101000a900473ffffffffffffffffffffffffffffffffffffffff1673ffffffffffffffffffffffffffffffffffffffff166391d6df7d87604001516040518263ffffffff1660e01b81526004016103329190610e3b565b600060405180830381865afa15801561034f573d6000803e3d6000fd5b505050506040513d6000823e3d601f19601f820116820180604052508101906103789190610f7c565b8152509450505050506105d0565b6040518060400160405280600015158152602001600160009054906101000a900473ffffffffffffffffffffffffffffffffffffffff1673ffffffffffffffffffffffffffffffffffffffff166391d6df7d87604001516040518263ffffffff1660e01b81526004016103f99190610e3b565b600060405180830381865afa158015610416573d6000803e3d6000fd5b505050506040513d6000823e3d601f19601f8201168201806040525081019061043f9190610f7c565b8152509450505050506105d0565b6040518060400160405280600015158152602001600160009054906101000a900473ffffffffffffffffffffffffffffffffffffffff1673ffffffffffffffffffffffffffffffffffffffff166391d6df7d87604001516040518263ffffffff1660e01b81526004016104c09190610e3b565b600060405180830381865afa1580156104dd573d6000803e3d6000fd5b505050506040513d6000823e3d601f19601f820116820180604052508101906105069190610f7c565b8152509450505050506105d0565b6040518060400160405280600015158152602001600160009054906101000a900473ffffffffffffffffffffffffffffffffffffffff1673ffffffffffffffffffffffffffffffffffffffff166391d6df7d60006040518263ffffffff1660e01b8152600401610584919061100a565b600060405180830381865afa1580156105a1573d6000803e3d6000fd5b505050506040513d6000823e3d601f19601f820116820180604052508101906105ca9190610f7c565b81525090505b919050565b6000600260008373ffffffffffffffffffffffffffffffffffffffff1673ffffffffffffffffffffffffffffffffffffffff168152602001908152602001600020805461062190610cf4565b90501461079457600260008273ffffffffffffffffffffffffffffffffffffffff1673ffffffffffffffffffffffffffffffffffffffff16815260200190815260200160002060006106739190610a0a565b60008142611450426106859190611054565b60008054906101000a900473ffffffffffffffffffffffffffffffffffffffff166040516020016106b99493929190610d98565b604051602081830303815290604052805190602001206040516020016106df9190610e11565b6040516020818303038152906040529050600061073e60405180608001604052808573ffffffffffffffffffffffffffffffffffffffff168152602001428152602001611450426107309190611054565b8152602001848152506109c5565b905080600260008573ffffffffffffffffffffffffffffffffffffffff1673ffffffffffffffffffffffffffffffffffffffff168152602001908152602001600020908161078c919061122a565b5050506108b1565b60008142611450426107a69190611054565b60008054906101000a900473ffffffffffffffffffffffffffffffffffffffff166040516020016107da9493929190610d98565b604051602081830303815290604052805190602001206040516020016108009190610e11565b6040516020818303038152906040529050600061085f60405180608001604052808573ffffffffffffffffffffffffffffffffffffffff168152602001428152602001611450426108519190611054565b8152602001848152506109c5565b905080600260008573ffffffffffffffffffffffffffffffffffffffff1673ffffffffffffffffffffffffffffffffffffffff16815260200190815260200160002090816108ad919061122a565b5050505b50565b600260205280600052604060002060009150905080546108d390610cf4565b80601f01602080910402602001604051908101604052809291908181526020018280546108ff90610cf4565b801561094c5780601f106109215761010080835404028352916020019161094c565b820191906000526020600020905b81548152906001019060200180831161092f57829003601f168201915b505050505081565b600260008273ffffffffffffffffffffffffffffffffffffffff1673ffffffffffffffffffffffffffffffffffffffff168152602001908152602001600020600061099f9190610a0a565b50565b6109aa610a4a565b818060200190518101906109be919061147c565b9050919050565b6060816040516020016109d89190611590565b6040516020818303038152906040529050919050565b6040518060400160405280600015158152602001606081525090565b508054610a1690610cf4565b6000825580601f10610a285750610a47565b601f016020900490600052602060002090810190610a469190610a88565b5b50565b6040518060800160405280600073ffffffffffffffffffffffffffffffffffffffff1681526020016000815260200160008152602001606081525090565b5b80821115610aa1576000816000905550600101610a89565b5090565b6000604051905090565b600080fd5b600080fd5b600073ffffffffffffffffffffffffffffffffffffffff82169050919050565b6000610ae482610ab9565b9050919050565b610af481610ad9565b8114610aff57600080fd5b50565b600081359050610b1181610aeb565b92915050565b600060208284031215610b2d57610b2c610aaf565b5b6000610b3b84828501610b02565b91505092915050565b60008115159050919050565b610b5981610b44565b82525050565b600081519050919050565b600082825260208201905092915050565b60005b83811015610b99578082015181840152602081019050610b7e565b60008484015250505050565b6000601f19601f8301169050919050565b6000610bc182610b5f565b610bcb8185610b6a565b9350610bdb818560208601610b7b565b610be481610ba5565b840191505092915050565b6000604083016000830151610c076000860182610b50565b5060208301518482036020860152610c1f8282610bb6565b9150508091505092915050565b60006020820190508181036000830152610c468184610bef565b905092915050565b600081519050919050565b600082825260208201905092915050565b6000610c7582610c4e565b610c7f8185610c59565b9350610c8f818560208601610b7b565b610c9881610ba5565b840191505092915050565b60006020820190508181036000830152610cbd8184610c6a565b905092915050565b7f4e487b7100000000000000000000000000000000000000000000000000000000600052602260045260246000fd5b60006002820490506001821680610d0c57607f821691505b602082108103610d1f57610d1e610cc5565b5b50919050565b60008160601b9050919050565b6000610d3d82610d25565b9050919050565b6000610d4f82610d32565b9050919050565b610d67610d6282610ad9565b610d44565b82525050565b6000819050919050565b6000819050919050565b610d92610d8d82610d6d565b610d77565b82525050565b6000610da48287610d56565b601482019150610db48286610d81565b602082019150610dc48285610d81565b602082019150610dd48284610d56565b60148201915081905095945050505050565b6000819050919050565b6000819050919050565b610e0b610e0682610de6565b610df0565b82525050565b6000610e1d8284610dfa565b60208201915081905092915050565b610e3581610d6d565b82525050565b6000602082019050610e506000830184610e2c565b92915050565b600080fd5b600080fd5b7f4e487b7100000000000000000000000000000000000000000000000000000000600052604160045260246000fd5b610e9882610ba5565b810181811067ffffffffffffffff82111715610eb757610eb6610e60565b5b80604052505050565b6000610eca610aa5565b9050610ed68282610e8f565b919050565b600067ffffffffffffffff821115610ef657610ef5610e60565b5b610eff82610ba5565b9050602081019050919050565b6000610f1f610f1a84610edb565b610ec0565b905082815260208101848484011115610f3b57610f3a610e5b565b5b610f46848285610b7b565b509392505050565b600082601f830112610f6357610f62610e56565b5b8151610f73848260208601610f0c565b91505092915050565b600060208284031215610f9257610f91610aaf565b5b600082015167ffffffffffffffff811115610fb057610faf610ab4565b5b610fbc84828501610f4e565b91505092915050565b6000819050919050565b6000819050919050565b6000610ff4610fef610fea84610fc5565b610fcf565b610d6d565b9050919050565b61100481610fd9565b82525050565b600060208201905061101f6000830184610ffb565b92915050565b7f4e487b7100000000000000000000000000000000000000000000000000000000600052601160045260246000fd5b600061105f82610d6d565b915061106a83610d6d565b925082820190508082111561108257611081611025565b5b92915050565b60008190508160005260206000209050919050565b60006020601f8301049050919050565b600082821b905092915050565b6000600883026110ea7fffffffffffffffffffffffffffffffffffffffffffffffffffffffffffffffff826110ad565b6110f486836110ad565b95508019841693508086168417925050509392505050565b600061112761112261111d84610d6d565b610fcf565b610d6d565b9050919050565b6000819050919050565b6111418361110c565b61115561114d8261112e565b8484546110ba565b825550505050565b600090565b61116a61115d565b611175818484611138565b505050565b5b818110156111995761118e600082611162565b60018101905061117b565b5050565b601f8211156111de576111af81611088565b6111b88461109d565b810160208510156111c7578190505b6111db6111d38561109d565b83018261117a565b50505b505050565b600082821c905092915050565b6000611201600019846008026111e3565b1980831691505092915050565b600061121a83836111f0565b9150826002028217905092915050565b61123382610c4e565b67ffffffffffffffff81111561124c5761124b610e60565b5b6112568254610cf4565b61126182828561119d565b600060209050601f8311600181146112945760008415611282578287015190505b61128c858261120e565b8655506112f4565b601f1984166112a286611088565b60005b828110156112ca578489015182556001820191506020850194506020810190506112a5565b868310156112e757848901516112e3601f8916826111f0565b8355505b6001600288020188555050505b505050505050565b600080fd5b600080fd5b60008151905061131581610aeb565b92915050565b61132481610d6d565b811461132f57600080fd5b50565b6000815190506113418161131b565b92915050565b600067ffffffffffffffff82111561136257611361610e60565b5b61136b82610ba5565b9050602081019050919050565b600061138b61138684611347565b610ec0565b9050828152602081018484840111156113a7576113a6610e5b565b5b6113b2848285610b7b565b509392505050565b600082601f8301126113cf576113ce610e56565b5b81516113df848260208601611378565b91505092915050565b6000608082840312156113fe576113fd6112fc565b5b6114086080610ec0565b9050600061141884828501611306565b600083015250602061142c84828501611332565b602083015250604061144084828501611332565b604083015250606082015167ffffffffffffffff81111561146457611463611301565b5b611470848285016113ba565b60608301525092915050565b60006020828403121561149257611491610aaf565b5b600082015167ffffffffffffffff8111156114b0576114af610ab4565b5b6114bc848285016113e8565b91505092915050565b6114ce81610ad9565b82525050565b6114dd81610d6d565b82525050565b600082825260208201905092915050565b60006114ff82610c4e565b61150981856114e3565b9350611519818560208601610b7b565b61152281610ba5565b840191505092915050565b600060808301600083015161154560008601826114c5565b50602083015161155860208601826114d4565b50604083015161156b60408601826114d4565b506060830151848203606086015261158382826114f4565b9150508091505092915050565b600060208201905081810360008301526115aa818461152d565b90509291505056fea2646970667358221220d685b41216d28f35cf273f201bd1575436b18cddeaf29958d445001880d9dec064736f6c63430008170033608060405234801561001057600080fd5b50610441806100206000396000f3fe608060405234801561001057600080fd5b506004361061002b5760003560e01c806391d6df7d14610030575b600080fd5b61004a600480360381019061004591906102ce565b610060565b604051610057919061038b565b60405180910390f35b606061006b82610072565b9050919050565b60606000600161008184610140565b01905060008167ffffffffffffffff8111156100a05761009f6103ad565b5b6040519080825280601f01601f1916602001820160405280156100d25781602001600182028036833780820191505090505b509050600082602001820190505b600115610135578080600190039150507f3031323334353637383961626364656600000000000000000000000000000000600a86061a8153600a8581610129576101286103dc565b5b049450600085036100e0575b819350505050919050565b600080600090507a184f03e93ff9f4daa797ed6e38ed64bf6a1f010000000000000000831061019e577a184f03e93ff9f4daa797ed6e38ed64bf6a1f0100000000000000008381610194576101936103dc565b5b0492506040810190505b6d04ee2d6d415b85acef810000000083106101db576d04ee2d6d415b85acef810000000083816101d1576101d06103dc565b5b0492506020810190505b662386f26fc10000831061020a57662386f26fc100008381610200576101ff6103dc565b5b0492506010810190505b6305f5e1008310610233576305f5e1008381610229576102286103dc565b5b0492506008810190505b612710831061025857612710838161024e5761024d6103dc565b5b0492506004810190505b6064831061027b5760648381610271576102706103dc565b5b0492506002810190505b600a831061028a576001810190505b80915050919050565b600080fd5b6000819050919050565b6102ab81610298565b81146102b657600080fd5b50565b6000813590506102c8816102a2565b92915050565b6000602082840312156102e4576102e3610293565b5b60006102f2848285016102b9565b91505092915050565b600081519050919050565b600082825260208201905092915050565b60005b8381101561033557808201518184015260208101905061031a565b60008484015250505050565b6000601f19601f8301169050919050565b600061035d826102fb565b6103678185610306565b9350610377818560208601610317565b61038081610341565b840191505092915050565b600060208201905081810360008301526103a58184610352565b905092915050565b7f4e487b7100000000000000000000000000000000000000000000000000000000600052604160045260246000fd5b7f4e487b7100000000000000000000000000000000000000000000000000000000600052601260045260246000fdfea26469706673582212208805f95c9d7f42b214154dd8cdb891a3381baf71bfba0657c70e6615bc958bac64736f6c63430008170033",
  "linkReferences": {},
  "deployedLinkReferences": {}
}