{
  "_format": "hh-sol-artifact-1",
  "contractName": "Generate_Key",
  "sourceName": "contracts/Generate_Key.sol",
  "abi": [
    {
      "inputs": [
        {
          "internalType": "address",
          "name": "_genShareCon",
          "type": "address"
        }
      ],
      "stateMutability": "nonpayable",
      "type": "constructor"
    },
    {
      "inputs": [
        {
          "internalType": "address",
          "name": "_user",
          "type": "address"
        },
        {
          "internalType": "string",
          "name": "_fileHash",
          "type": "string"
        }
      ],
      "name": "getKey",
      "outputs": [
        {
          "internalType": "string[]",
          "name": "",
          "type": "string[]"
        }
      ],
      "stateMutability": "view",
      "type": "function"
    },
    {
      "inputs": [
        {
          "internalType": "address",
          "name": "_user",
          "type": "address"
        },
        {
          "internalType": "string",
          "name": "_hashFile",
          "type": "string"
        }
      ],
      "name": "input",
      "outputs": [],
      "stateMutability": "nonpayable",
      "type": "function"
    },
    {
      "inputs": [],
      "name": "s",
      "outputs": [
        {
          "internalType": "uint256",
          "name": "",
          "type": "uint256"
        }
      ],
      "stateMutability": "view",
      "type": "function"
    },
    {
      "inputs": [
        {
          "internalType": "uint256",
          "name": "",
          "type": "uint256"
        }
      ],
      "name": "shares",
      "outputs": [
        {
          "internalType": "uint256",
          "name": "x",
          "type": "uint256"
        },
        {
          "internalType": "uint256",
          "name": "y",
          "type": "uint256"
        }
      ],
      "stateMutability": "view",
      "type": "function"
    },
    {
      "inputs": [],
      "name": "t",
      "outputs": [
        {
          "internalType": "uint256",
          "name": "",
          "type": "uint256"
        }
      ],
      "stateMutability": "view",
      "type": "function"
    }
  ],
  "bytecode": "0x60806040526127176005553480156200001757600080fd5b50604051620028123803806200281283398181016040528101906200003d9190620003c8565b336000806101000a81548173ffffffffffffffffffffffffffffffffffffffff021916908373ffffffffffffffffffffffffffffffffffffffff16021790555080600160006101000a81548173ffffffffffffffffffffffffffffffffffffffff021916908373ffffffffffffffffffffffffffffffffffffffff1602179055506001600960008060ff16815260200190815260200160002081905550600160096000600160ff16815260200190815260200160002081905550600260096000600260ff16815260200190815260200160002081905550600660096000600360ff16815260200190815260200160002081905550601860096000600460ff16815260200190815260200160002081905550607860096000600560ff168152602001908152602001600020819055506102d060096000600660ff168152602001908152602001600020819055506113b060096000600760ff16815260200190815260200160002081905550619d8060096000600860ff168152602001908152602001600020819055506205898060096000600960ff1681526020019081526020016000208190555062375f0060096000600a60ff16815260200190815260200160002081905550630261150060096000600b60ff16815260200190815260200160002081905550631c8cfc0060096000600c60ff1681526020019081526020016000208190555064017328cc0060096000600d60ff1681526020019081526020016000208190555064144c3b280060096000600e60ff168152602001908152602001600020819055506501307777580060096000600f60ff168152602001908152602001600020819055506513077775800060096000601060ff168152602001908152602001600020819055506601437eeecd800060096000601160ff168152602001908152602001600020819055506616beecca73000060096000601260ff168152602001908152602001600020819055506701b02b930689000060096000601360ff168152602001908152602001600020819055506721c3677c82b4000060096000601460ff1681526020019081526020016000208190555050620003fa565b600080fd5b600073ffffffffffffffffffffffffffffffffffffffff82169050919050565b6000620003908262000363565b9050919050565b620003a28162000383565b8114620003ae57600080fd5b50565b600081519050620003c28162000397565b92915050565b600060208284031215620003e157620003e06200035e565b5b6000620003f184828501620003b1565b91505092915050565b612408806200040a6000396000f3fe608060405234801561001057600080fd5b50600436106100575760003560e01c806357a858fc1461005c5780637898b9171461008d57806386b714e2146100bd57806392d0d153146100db578063c93731ee146100f9575b600080fd5b61007660048036038101906100719190610fe2565b610115565b60405161008492919061101e565b60405180910390f35b6100a760048036038101906100a291906111eb565b610149565b6040516100b49190611388565b60405180910390f35b6100c561027e565b6040516100d291906113aa565b60405180910390f35b6100e3610284565b6040516100f091906113aa565b60405180910390f35b610113600480360381019061010e91906111eb565b61028a565b005b6008818154811061012557600080fd5b90600052602060002090600202016000915090508060000154908060010154905082565b6060600760008473ffffffffffffffffffffffffffffffffffffffff1673ffffffffffffffffffffffffffffffffffffffff168152602001908152602001600020826040516101989190611401565b9081526020016040518091039020805480602002602001604051908101604052809291908181526020016000905b828210156102725783829060005260206000200180546101e590611447565b80601f016020809104026020016040519081016040528092919081815260200182805461021190611447565b801561025e5780601f106102335761010080835404028352916020019161025e565b820191906000526020600020905b81548152906001019060200180831161024157829003601f168201915b5050505050815260200190600101906101c6565b50505050905092915050565b60045481565b60065481565b6000600160009054906101000a900473ffffffffffffffffffffffffffffffffffffffff1673ffffffffffffffffffffffffffffffffffffffff1663e319f755836040518263ffffffff1660e01b81526004016102e791906114c2565b600060405180830381865afa158015610304573d6000803e3d6000fd5b505050506040513d6000823e3d601f19601f8201168201806040525081019061032d91906116d7565b905080602001516020015160068190555060065481600001515114610387576040517f08c379a000000000000000000000000000000000000000000000000000000000815260040161037e90611792565b60405180910390fd5b600860006103959190610eb0565b60005b8160000151518110156104525760006040518060400160405280846000015184815181106103c9576103c86117b2565b5b6020026020010151600001518152602001846000015184815181106103f1576103f06117b2565b5b6020026020010151602001518152509050600881908060018154018082558091505060019003906000526020600020906002020160009091909190915060008201518160000155602082015181600101555050818060010192505050610398565b5080602001516000015160028190555061046c8383610471565b505050565b600060016006546104829190611810565b67ffffffffffffffff81111561049b5761049a6110c0565b5b6040519080825280602002602001820160405280156104c95781602001602082028036833780820191505090505b509050600060065467ffffffffffffffff8111156104ea576104e96110c0565b5b6040519080825280602002602001820160405280156105185781602001602082028036833780820191505090505b509050600060065467ffffffffffffffff811115610539576105386110c0565b5b6040519080825280602002602001820160405280156105675781602001602082028036833780820191505090505b5090506000600880549050905060005b818110156109f157600060088281548110610595576105946117b2565b5b90600052602060002090600202016000015490506000600883815481106105bf576105be6117b2565b5b90600052602060002090600202016001015490506000600190506000805b86811015610692578086036105f75780600101905061068d565b6008818154811061060b5761060a6117b2565b5b9060005260206000209060020201600001548a838061062990611844565b94508151811061063c5761063b6117b2565b5b6020026020010181815250506008818154811061065c5761065b6117b2565b5b906000526020600020906002020160000154856106799190611896565b8361068491906118d9565b92508060010190505b6105dd565b506000808312156106b157600190508260006106ae9190611896565b92505b6000600290505b600160055482866106c991906118d9565b6106d39190611980565b146106eb5780806106e3906119b1565b9150506106b8565b811561071d57806106fb906119f9565b90505b600081121561071c57600554816107159190611a41565b90506106fe565b5b60008b51905060005b8160ff168160ff1611610823576107408d8260ff16610c10565b60008061074d8484610c46565b905060005b818110156107f25760006001905060005b600a6000848152602001908152602001600020805490508110156107d75760008660ff1603156107d757600a600084815260200190815260200160002081815481106107b2576107b16117b2565b5b9060005260206000200154826107c89190611a85565b91508080600101915050610763565b5080846107e49190611ac7565b935081600101915050610752565b50818e8460ff168151811061080a576108096117b2565b5b6020026020010181815250508260010192505050610726565b5060005b8b5181101561097a57600060028261083f9190611afb565b1461088b578b8181518110610857576108566117b2565b5b6020026020010151600061086b9190611896565b8c828151811061087e5761087d6117b2565b5b6020026020010181815250505b6108ae8c82815181106108a1576108a06117b2565b5b6020026020010151610d4b565b8c82815181106108c1576108c06117b2565b5b602002602001018181525050828c82815181106108e1576108e06117b2565b5b602002602001018181516108f591906118d9565b9150818152505061091f8c8281518110610912576109116117b2565b5b6020026020010151610d4b565b8c8281518110610932576109316117b2565b5b602002602001018181525050868c8281518110610952576109516117b2565b5b6020026020010181815161096691906118d9565b915081815250508080600101915050610827565b5060005b6006548110156109de578b818151811061099b5761099a6117b2565b5b60200260200101518b82815181106109b6576109b56117b2565b5b602002602001018181516109ca9190611a41565b91508181525050808060010191505061097e565b5087600101975050505050505050610577565b5060005b600654811015610a4c57610a22838281518110610a1557610a146117b2565b5b6020026020010151610d4b565b838281518110610a3557610a346117b2565b5b6020026020010181815250508060010190506109f5565b508160018351610a5c9190611810565b81518110610a6d57610a6c6117b2565b5b60200260200101516004819055508160028351610a8a9190611810565b81518110610a9b57610a9a6117b2565b5b6020026020010151600381905550610ab1610d97565b506000604051610ac090610ed4565b604051809103906000f080158015610adc573d6000803e3d6000fd5b509050600760008873ffffffffffffffffffffffffffffffffffffffff1673ffffffffffffffffffffffffffffffffffffffff16815260200190815260200160002086604051610b2c9190611401565b90815260200160405180910390208173ffffffffffffffffffffffffffffffffffffffff166391d6df7d6004546040518263ffffffff1660e01b8152600401610b7591906113aa565b600060405180830381865afa158015610b92573d6000803e3d6000fd5b505050506040513d6000823e3d601f19601f82011682018060405250810190610bbb9190611b9c565b908060018154018082558091505060019003906000526020600020016000909190919091509081610bec9190611d91565b5060086000610bfb9190610eb0565b60046000905560066000905550505050505050565b6000600a90506000600b9050610c2a848460008585610dbf565b600b6000610c389190610ee1565b6000600c8190555050505050565b600060148360ff161115610c8f576040517f08c379a0000000000000000000000000000000000000000000000000000000008152600401610c8690611eaf565b60405180910390fd5b60148260ff161115610cd6576040517f08c379a0000000000000000000000000000000000000000000000000000000008152600401610ccd90611eaf565b60405180910390fd5b600960008385610ce69190611edc565b60ff1660ff16815260200190815260200160002054600960008460ff1660ff16815260200190815260200160002054600960008660ff1660ff16815260200190815260200160002054610d399190611f11565b610d439190611f11565b905092915050565b600080821215610d79575b6000821215610d745760055482610d6d9190611a41565b9150610d56565b610d8e565b60055482610d879190611980565b9050610d92565b8190505b919050565b6000600454600554600354600254610daf9190611a85565b610db99190611afb565b14905090565b83818054905003610e0b5780826000600c548152602001908152602001600020908054610ded929190610f02565b50600c6000815480929190610e0190611844565b9190505550610ea9565b60008390505b8551811015610ea75781868281518110610e2e57610e2d6117b2565b5b60200260200101519080600181540180825580915050600190039060005260206000200160009091909190915055610e758686600184610e6e9190611ac7565b8686610dbf565b81805480610e8657610e85611f42565b5b60019003818190600052602060002001600090559055806001019050610e11565b505b5050505050565b5080546000825560020290600052602060002090810190610ed19190610f54565b50565b61046180611f7283390190565b5080546000825590600052602060002090810190610eff9190610f7b565b50565b828054828255906000526020600020908101928215610f435760005260206000209182015b82811115610f42578254825591600101919060010190610f27565b5b509050610f509190610f7b565b5090565b5b80821115610f7757600080820160009055600182016000905550600201610f55565b5090565b5b80821115610f94576000816000905550600101610f7c565b5090565b6000604051905090565b600080fd5b600080fd5b6000819050919050565b610fbf81610fac565b8114610fca57600080fd5b50565b600081359050610fdc81610fb6565b92915050565b600060208284031215610ff857610ff7610fa2565b5b600061100684828501610fcd565b91505092915050565b61101881610fac565b82525050565b6000604082019050611033600083018561100f565b611040602083018461100f565b9392505050565b600073ffffffffffffffffffffffffffffffffffffffff82169050919050565b600061107282611047565b9050919050565b61108281611067565b811461108d57600080fd5b50565b60008135905061109f81611079565b92915050565b600080fd5b600080fd5b6000601f19601f8301169050919050565b7f4e487b7100000000000000000000000000000000000000000000000000000000600052604160045260246000fd5b6110f8826110af565b810181811067ffffffffffffffff82111715611117576111166110c0565b5b80604052505050565b600061112a610f98565b905061113682826110ef565b919050565b600067ffffffffffffffff821115611156576111556110c0565b5b61115f826110af565b9050602081019050919050565b82818337600083830152505050565b600061118e6111898461113b565b611120565b9050828152602081018484840111156111aa576111a96110aa565b5b6111b584828561116c565b509392505050565b600082601f8301126111d2576111d16110a5565b5b81356111e284826020860161117b565b91505092915050565b6000806040838503121561120257611201610fa2565b5b600061121085828601611090565b925050602083013567ffffffffffffffff81111561123157611230610fa7565b5b61123d858286016111bd565b9150509250929050565b600081519050919050565b600082825260208201905092915050565b6000819050602082019050919050565b600081519050919050565b600082825260208201905092915050565b60005b838110156112ad578082015181840152602081019050611292565b60008484015250505050565b60006112c482611273565b6112ce818561127e565b93506112de81856020860161128f565b6112e7816110af565b840191505092915050565b60006112fe83836112b9565b905092915050565b6000602082019050919050565b600061131e82611247565b6113288185611252565b93508360208202850161133a85611263565b8060005b85811015611376578484038952815161135785826112f2565b945061136283611306565b925060208a0199505060018101905061133e565b50829750879550505050505092915050565b600060208201905081810360008301526113a28184611313565b905092915050565b60006020820190506113bf600083018461100f565b92915050565b600081905092915050565b60006113db82611273565b6113e581856113c5565b93506113f581856020860161128f565b80840191505092915050565b600061140d82846113d0565b915081905092915050565b7f4e487b7100000000000000000000000000000000000000000000000000000000600052602260045260246000fd5b6000600282049050600182168061145f57607f821691505b60208210810361147257611471611418565b5b50919050565b600082825260208201905092915050565b600061149482611273565b61149e8185611478565b93506114ae81856020860161128f565b6114b7816110af565b840191505092915050565b600060208201905081810360008301526114dc8184611489565b905092915050565b600080fd5b600080fd5b600067ffffffffffffffff821115611509576115086110c0565b5b602082029050602081019050919050565b600080fd5b60008151905061152e81610fb6565b92915050565b60006040828403121561154a576115496114e4565b5b6115546040611120565b905060006115648482850161151f565b60008301525060206115788482850161151f565b60208301525092915050565b6000611597611592846114ee565b611120565b905080838252602082019050604084028301858111156115ba576115b961151a565b5b835b818110156115e357806115cf8882611534565b8452602084019350506040810190506115bc565b5050509392505050565b600082601f830112611602576116016110a5565b5b8151611612848260208601611584565b91505092915050565b600060408284031215611631576116306114e4565b5b61163b6040611120565b9050600061164b8482850161151f565b600083015250602061165f8482850161151f565b60208301525092915050565b600060608284031215611681576116806114e4565b5b61168b6040611120565b9050600082015167ffffffffffffffff8111156116ab576116aa6114e9565b5b6116b7848285016115ed565b60008301525060206116cb8482850161161b565b60208301525092915050565b6000602082840312156116ed576116ec610fa2565b5b600082015167ffffffffffffffff81111561170b5761170a610fa7565b5b6117178482850161166b565b91505092915050565b7f456e746572206f6e6c79207468726573686f6c64206e756d626572206f66207360008201527f6861726573000000000000000000000000000000000000000000000000000000602082015250565b600061177c602583611478565b915061178782611720565b604082019050919050565b600060208201905081810360008301526117ab8161176f565b9050919050565b7f4e487b7100000000000000000000000000000000000000000000000000000000600052603260045260246000fd5b7f4e487b7100000000000000000000000000000000000000000000000000000000600052601160045260246000fd5b600061181b82610fac565b915061182683610fac565b925082820390508181111561183e5761183d6117e1565b5b92915050565b600061184f82610fac565b91507fffffffffffffffffffffffffffffffffffffffffffffffffffffffffffffffff8203611881576118806117e1565b5b600182019050919050565b6000819050919050565b60006118a18261188c565b91506118ac8361188c565b92508282039050818112600084121682821360008512151617156118d3576118d26117e1565b5b92915050565b60006118e48261188c565b91506118ef8361188c565b92508282026118fd8161188c565b91507f80000000000000000000000000000000000000000000000000000000000000008414600084121615611935576119346117e1565b5b828205841483151761194a576119496117e1565b5b5092915050565b7f4e487b7100000000000000000000000000000000000000000000000000000000600052601260045260246000fd5b600061198b8261188c565b91506119968361188c565b9250826119a6576119a5611951565b5b828207905092915050565b60006119bc8261188c565b91507f7fffffffffffffffffffffffffffffffffffffffffffffffffffffffffffffff82036119ee576119ed6117e1565b5b600182019050919050565b6000611a048261188c565b91507f80000000000000000000000000000000000000000000000000000000000000008203611a3657611a356117e1565b5b816000039050919050565b6000611a4c8261188c565b9150611a578361188c565b925082820190508281121560008312168382126000841215161715611a7f57611a7e6117e1565b5b92915050565b6000611a9082610fac565b9150611a9b83610fac565b9250828202611aa981610fac565b91508282048414831517611ac057611abf6117e1565b5b5092915050565b6000611ad282610fac565b9150611add83610fac565b9250828201905080821115611af557611af46117e1565b5b92915050565b6000611b0682610fac565b9150611b1183610fac565b925082611b2157611b20611951565b5b828206905092915050565b6000611b3f611b3a8461113b565b611120565b905082815260208101848484011115611b5b57611b5a6110aa565b5b611b6684828561128f565b509392505050565b600082601f830112611b8357611b826110a5565b5b8151611b93848260208601611b2c565b91505092915050565b600060208284031215611bb257611bb1610fa2565b5b600082015167ffffffffffffffff811115611bd057611bcf610fa7565b5b611bdc84828501611b6e565b91505092915050565b60008190508160005260206000209050919050565b60006020601f8301049050919050565b600082821b905092915050565b600060088302611c477fffffffffffffffffffffffffffffffffffffffffffffffffffffffffffffffff82611c0a565b611c518683611c0a565b95508019841693508086168417925050509392505050565b6000819050919050565b6000611c8e611c89611c8484610fac565b611c69565b610fac565b9050919050565b6000819050919050565b611ca883611c73565b611cbc611cb482611c95565b848454611c17565b825550505050565b600090565b611cd1611cc4565b611cdc818484611c9f565b505050565b5b81811015611d0057611cf5600082611cc9565b600181019050611ce2565b5050565b601f821115611d4557611d1681611be5565b611d1f84611bfa565b81016020851015611d2e578190505b611d42611d3a85611bfa565b830182611ce1565b50505b505050565b600082821c905092915050565b6000611d6860001984600802611d4a565b1980831691505092915050565b6000611d818383611d57565b9150826002028217905092915050565b611d9a82611273565b67ffffffffffffffff811115611db357611db26110c0565b5b611dbd8254611447565b611dc8828285611d04565b600060209050601f831160018114611dfb5760008415611de9578287015190505b611df38582611d75565b865550611e5b565b601f198416611e0986611be5565b60005b82811015611e3157848901518255600182019150602085019450602081019050611e0c565b86831015611e4e5784890151611e4a601f891682611d57565b8355505b6001600288020188555050505b505050505050565b7f4d6f726520666163746f7269616c732072657175697265640000000000000000600082015250565b6000611e99601883611478565b9150611ea482611e63565b602082019050919050565b60006020820190508181036000830152611ec881611e8c565b9050919050565b600060ff82169050919050565b6000611ee782611ecf565b9150611ef283611ecf565b9250828203905060ff811115611f0b57611f0a6117e1565b5b92915050565b6000611f1c82610fac565b9150611f2783610fac565b925082611f3757611f36611951565b5b828204905092915050565b7f4e487b7100000000000000000000000000000000000000000000000000000000600052603160045260246000fdfe608060405234801561001057600080fd5b50610441806100206000396000f3fe608060405234801561001057600080fd5b506004361061002b5760003560e01c806391d6df7d14610030575b600080fd5b61004a600480360381019061004591906102ce565b610060565b604051610057919061038b565b60405180910390f35b606061006b82610072565b9050919050565b60606000600161008184610140565b01905060008167ffffffffffffffff8111156100a05761009f6103ad565b5b6040519080825280601f01601f1916602001820160405280156100d25781602001600182028036833780820191505090505b509050600082602001820190505b600115610135578080600190039150507f3031323334353637383961626364656600000000000000000000000000000000600a86061a8153600a8581610129576101286103dc565b5b049450600085036100e0575b819350505050919050565b600080600090507a184f03e93ff9f4daa797ed6e38ed64bf6a1f010000000000000000831061019e577a184f03e93ff9f4daa797ed6e38ed64bf6a1f0100000000000000008381610194576101936103dc565b5b0492506040810190505b6d04ee2d6d415b85acef810000000083106101db576d04ee2d6d415b85acef810000000083816101d1576101d06103dc565b5b0492506020810190505b662386f26fc10000831061020a57662386f26fc100008381610200576101ff6103dc565b5b0492506010810190505b6305f5e1008310610233576305f5e1008381610229576102286103dc565b5b0492506008810190505b612710831061025857612710838161024e5761024d6103dc565b5b0492506004810190505b6064831061027b5760648381610271576102706103dc565b5b0492506002810190505b600a831061028a576001810190505b80915050919050565b600080fd5b6000819050919050565b6102ab81610298565b81146102b657600080fd5b50565b6000813590506102c8816102a2565b92915050565b6000602082840312156102e4576102e3610293565b5b60006102f2848285016102b9565b91505092915050565b600081519050919050565b600082825260208201905092915050565b60005b8381101561033557808201518184015260208101905061031a565b60008484015250505050565b6000601f19601f8301169050919050565b600061035d826102fb565b6103678185610306565b9350610377818560208601610317565b61038081610341565b840191505092915050565b600060208201905081810360008301526103a58184610352565b905092915050565b7f4e487b7100000000000000000000000000000000000000000000000000000000600052604160045260246000fd5b7f4e487b7100000000000000000000000000000000000000000000000000000000600052601260045260246000fdfea2646970667358221220b7b492142da48292c26aac397d2592bb2bb71c0f6287a823d1b73b10820bff0d64736f6c63430008170033a26469706673582212205207b9f6683f60f0025ad1e3b1d9880fd425f0ad34b595e246323f6dc6bebf5c64736f6c63430008170033",
  "linkReferences": {},
  "deployedLinkReferences": {}
}