{
  "_format": "hh-sol-artifact-1",
  "contractName": "ACL",
  "sourceName": "contracts/ACL.sol",
  "abi": [
    {
      "inputs": [
        {
          "internalType": "address",
          "name": "_integrityCon",
          "type": "address"
        },
        {
          "internalType": "address",
          "name": "_identityCon",
          "type": "address"
        }
      ],
      "stateMutability": "nonpayable",
      "type": "constructor"
    },
    {
      "inputs": [],
      "name": "contractOwner",
      "outputs": [
        {
          "internalType": "address",
          "name": "",
          "type": "address"
        }
      ],
      "stateMutability": "view",
      "type": "function"
    },
    {
      "inputs": [
        {
          "internalType": "address",
          "name": "_user",
          "type": "address"
        },
        {
          "internalType": "address",
          "name": "_csp",
          "type": "address"
        },
        {
          "internalType": "string",
          "name": "_id",
          "type": "string"
        },
        {
          "internalType": "bool",
          "name": "_isPublic",
          "type": "bool"
        },
        {
          "internalType": "string",
          "name": "_s1",
          "type": "string"
        },
        {
          "internalType": "string",
          "name": "_s2",
          "type": "string"
        }
      ],
      "name": "createACL",
      "outputs": [],
      "stateMutability": "nonpayable",
      "type": "function"
    },
    {
      "inputs": [],
      "name": "identityCon",
      "outputs": [
        {
          "internalType": "contract Identity",
          "name": "",
          "type": "address"
        }
      ],
      "stateMutability": "view",
      "type": "function"
    },
    {
      "inputs": [],
      "name": "integrityCon",
      "outputs": [
        {
          "internalType": "contract Integrity",
          "name": "",
          "type": "address"
        }
      ],
      "stateMutability": "view",
      "type": "function"
    },
    {
      "inputs": [],
      "name": "verificationResult",
      "outputs": [
        {
          "internalType": "bool",
          "name": "success",
          "type": "bool"
        },
        {
          "internalType": "string",
          "name": "message",
          "type": "string"
        }
      ],
      "stateMutability": "view",
      "type": "function"
    },
    {
      "inputs": [
        {
          "internalType": "address",
          "name": "_csp",
          "type": "address"
        },
        {
          "internalType": "string",
          "name": "_id",
          "type": "string"
        }
      ],
      "name": "verifyAcl",
      "outputs": [
        {
          "internalType": "bool",
          "name": "",
          "type": "bool"
        }
      ],
      "stateMutability": "view",
      "type": "function"
    }
  ],
  "bytecode": "0x60806040523480156200001157600080fd5b50604051620011c8380380620011c883398181016040528101906200003791906200016b565b336000806101000a81548173ffffffffffffffffffffffffffffffffffffffff021916908373ffffffffffffffffffffffffffffffffffffffff16021790555081600160006101000a81548173ffffffffffffffffffffffffffffffffffffffff021916908373ffffffffffffffffffffffffffffffffffffffff16021790555080600260006101000a81548173ffffffffffffffffffffffffffffffffffffffff021916908373ffffffffffffffffffffffffffffffffffffffff1602179055505050620001b2565b600080fd5b600073ffffffffffffffffffffffffffffffffffffffff82169050919050565b6000620001338262000106565b9050919050565b620001458162000126565b81146200015157600080fd5b50565b60008151905062000165816200013a565b92915050565b6000806040838503121562000185576200018462000101565b5b6000620001958582860162000154565b9250506020620001a88582860162000154565b9150509250929050565b61100680620001c26000396000f3fe608060405234801561001057600080fd5b50600436106100625760003560e01c806341c27228146100675780639aa332b414610085578063bb173503146100a1578063bf3df26b146100c0578063ce606ee0146100f0578063f3974cfe1461010e575b600080fd5b61006f61012c565b60405161007c91906105bf565b60405180910390f35b61009f600480360381019061009a91906107aa565b610152565b005b6100a96103d9565b6040516100b7929190610919565b60405180910390f35b6100da60048036038101906100d59190610949565b610480565b6040516100e791906109a5565b60405180910390f35b6100f86104f6565b60405161010591906109cf565b60405180910390f35b61011661051a565b6040516101239190610a0b565b60405180910390f35b600260009054906101000a900473ffffffffffffffffffffffffffffffffffffffff1681565b6000600260009054906101000a900473ffffffffffffffffffffffffffffffffffffffff1673ffffffffffffffffffffffffffffffffffffffff16634130276b886040518263ffffffff1660e01b81526004016101af91906109cf565b600060405180830381865afa1580156101cc573d6000803e3d6000fd5b505050506040513d6000823e3d601f19601f820116820180604052508101906101f59190610b21565b9050806000015161023b576040517f08c379a000000000000000000000000000000000000000000000000000000000815260040161023290610bb6565b60405180910390fd5b600160009054906101000a900473ffffffffffffffffffffffffffffffffffffffff1673ffffffffffffffffffffffffffffffffffffffff1663024e161888876040518363ffffffff1660e01b8152600401610298929190610bd6565b602060405180830381865afa1580156102b5573d6000803e3d6000fd5b505050506040513d601f19601f820116820180604052508101906102d99190610c06565b610318576040517f08c379a000000000000000000000000000000000000000000000000000000000815260040161030f90610c7f565b60405180910390fd5b6000600560008873ffffffffffffffffffffffffffffffffffffffff1673ffffffffffffffffffffffffffffffffffffffff168152602001908152602001600020866040516103679190610cdb565b90815260200160405180910390209050858160000190816103889190610efe565b50848160010160006101000a81548160ff021916908315150217905550838160020160000190816103b99190610efe565b50828160020160010190816103ce9190610efe565b505050505050505050565b60038060000160009054906101000a900460ff16908060010180546103fd90610d21565b80601f016020809104026020016040519081016040528092919081815260200182805461042990610d21565b80156104765780601f1061044b57610100808354040283529160200191610476565b820191906000526020600020905b81548152906001019060200180831161045957829003601f168201915b5050505050905082565b6000600560008473ffffffffffffffffffffffffffffffffffffffff1673ffffffffffffffffffffffffffffffffffffffff168152602001908152602001600020826040516104cf9190610cdb565b908152602001604051809103902060010160009054906101000a900460ff16905092915050565b60008054906101000a900473ffffffffffffffffffffffffffffffffffffffff1681565b600160009054906101000a900473ffffffffffffffffffffffffffffffffffffffff1681565b600073ffffffffffffffffffffffffffffffffffffffff82169050919050565b6000819050919050565b600061058561058061057b84610540565b610560565b610540565b9050919050565b60006105978261056a565b9050919050565b60006105a98261058c565b9050919050565b6105b98161059e565b82525050565b60006020820190506105d460008301846105b0565b92915050565b6000604051905090565b600080fd5b600080fd5b60006105f982610540565b9050919050565b610609816105ee565b811461061457600080fd5b50565b60008135905061062681610600565b92915050565b600080fd5b600080fd5b6000601f19601f8301169050919050565b7f4e487b7100000000000000000000000000000000000000000000000000000000600052604160045260246000fd5b61067f82610636565b810181811067ffffffffffffffff8211171561069e5761069d610647565b5b80604052505050565b60006106b16105da565b90506106bd8282610676565b919050565b600067ffffffffffffffff8211156106dd576106dc610647565b5b6106e682610636565b9050602081019050919050565b82818337600083830152505050565b6000610715610710846106c2565b6106a7565b90508281526020810184848401111561073157610730610631565b5b61073c8482856106f3565b509392505050565b600082601f8301126107595761075861062c565b5b8135610769848260208601610702565b91505092915050565b60008115159050919050565b61078781610772565b811461079257600080fd5b50565b6000813590506107a48161077e565b92915050565b60008060008060008060c087890312156107c7576107c66105e4565b5b60006107d589828a01610617565b96505060206107e689828a01610617565b955050604087013567ffffffffffffffff811115610807576108066105e9565b5b61081389828a01610744565b945050606061082489828a01610795565b935050608087013567ffffffffffffffff811115610845576108446105e9565b5b61085189828a01610744565b92505060a087013567ffffffffffffffff811115610872576108716105e9565b5b61087e89828a01610744565b9150509295509295509295565b61089481610772565b82525050565b600081519050919050565b600082825260208201905092915050565b60005b838110156108d45780820151818401526020810190506108b9565b60008484015250505050565b60006108eb8261089a565b6108f581856108a5565b93506109058185602086016108b6565b61090e81610636565b840191505092915050565b600060408201905061092e600083018561088b565b818103602083015261094081846108e0565b90509392505050565b600080604083850312156109605761095f6105e4565b5b600061096e85828601610617565b925050602083013567ffffffffffffffff81111561098f5761098e6105e9565b5b61099b85828601610744565b9150509250929050565b60006020820190506109ba600083018461088b565b92915050565b6109c9816105ee565b82525050565b60006020820190506109e460008301846109c0565b92915050565b60006109f58261058c565b9050919050565b610a05816109ea565b82525050565b6000602082019050610a2060008301846109fc565b92915050565b600080fd5b600080fd5b600081519050610a3f8161077e565b92915050565b6000610a58610a53846106c2565b6106a7565b905082815260208101848484011115610a7457610a73610631565b5b610a7f8482856108b6565b509392505050565b600082601f830112610a9c57610a9b61062c565b5b8151610aac848260208601610a45565b91505092915050565b600060408284031215610acb57610aca610a26565b5b610ad560406106a7565b90506000610ae584828501610a30565b600083015250602082015167ffffffffffffffff811115610b0957610b08610a2b565b5b610b1584828501610a87565b60208301525092915050565b600060208284031215610b3757610b366105e4565b5b600082015167ffffffffffffffff811115610b5557610b546105e9565b5b610b6184828501610ab5565b91505092915050565b7f5573657220766572696669636174696f6e206661696c65640000000000000000600082015250565b6000610ba06018836108a5565b9150610bab82610b6a565b602082019050919050565b60006020820190508181036000830152610bcf81610b93565b9050919050565b6000604082019050610beb60008301856109c0565b8181036020830152610bfd81846108e0565b90509392505050565b600060208284031215610c1c57610c1b6105e4565b5b6000610c2a84828501610a30565b91505092915050565b7f44617461206f776e657220766572696669636174696f6e206661696c65640000600082015250565b6000610c69601e836108a5565b9150610c7482610c33565b602082019050919050565b60006020820190508181036000830152610c9881610c5c565b9050919050565b600081905092915050565b6000610cb58261089a565b610cbf8185610c9f565b9350610ccf8185602086016108b6565b80840191505092915050565b6000610ce78284610caa565b915081905092915050565b7f4e487b7100000000000000000000000000000000000000000000000000000000600052602260045260246000fd5b60006002820490506001821680610d3957607f821691505b602082108103610d4c57610d4b610cf2565b5b50919050565b60008190508160005260206000209050919050565b60006020601f8301049050919050565b600082821b905092915050565b600060088302610db47fffffffffffffffffffffffffffffffffffffffffffffffffffffffffffffffff82610d77565b610dbe8683610d77565b95508019841693508086168417925050509392505050565b6000819050919050565b6000610dfb610df6610df184610dd6565b610560565b610dd6565b9050919050565b6000819050919050565b610e1583610de0565b610e29610e2182610e02565b848454610d84565b825550505050565b600090565b610e3e610e31565b610e49818484610e0c565b505050565b5b81811015610e6d57610e62600082610e36565b600181019050610e4f565b5050565b601f821115610eb257610e8381610d52565b610e8c84610d67565b81016020851015610e9b578190505b610eaf610ea785610d67565b830182610e4e565b50505b505050565b600082821c905092915050565b6000610ed560001984600802610eb7565b1980831691505092915050565b6000610eee8383610ec4565b9150826002028217905092915050565b610f078261089a565b67ffffffffffffffff811115610f2057610f1f610647565b5b610f2a8254610d21565b610f35828285610e71565b600060209050601f831160018114610f685760008415610f56578287015190505b610f608582610ee2565b865550610fc8565b601f198416610f7686610d52565b60005b82811015610f9e57848901518255600182019150602085019450602081019050610f79565b86831015610fbb5784890151610fb7601f891682610ec4565b8355505b6001600288020188555050505b50505050505056fea26469706673582212207f9cfb7d8a397c576ef9e36e083bdda632a39c09eea07a59b5e712283186542264736f6c63430008170033",
  "linkReferences": {},
  "deployedLinkReferences": {}
}